{
  "abi": [
    {
      "inputs": [],
      "name": "last_completed_migration",
      "outputs": [
        {
          "internalType": "uint256",
          "name": "",
          "type": "uint256"
        }
      ],
      "stateMutability": "view",
      "type": "function"
    },
    {
      "inputs": [],
      "name": "owner",
      "outputs": [
        {
          "internalType": "address",
          "name": "",
          "type": "address"
        }
      ],
      "stateMutability": "view",
      "type": "function"
    },
    {
      "inputs": [
        {
          "internalType": "uint256",
          "name": "completed",
          "type": "uint256"
        }
      ],
      "name": "setCompleted",
      "outputs": [],
      "stateMutability": "nonpayable",
      "type": "function"
    },
    {
      "inputs": [
        {
          "internalType": "address",
          "name": "new_address",
          "type": "address"
        }
      ],
      "name": "upgrade",
      "outputs": [],
      "stateMutability": "nonpayable",
      "type": "function"
    }
  ],
  "bytecode": {
    "object": "0x6080604052600080546001600160a01b0319163317905534801561002257600080fd5b5061025e806100326000396000f3fe608060405234801561001057600080fd5b506004361061004c5760003560e01c80630900f01014610051578063445df0ac146100665780638da5cb5b14610082578063fdacd576146100ad575b600080fd5b61006461005f36600461018b565b6100c0565b005b61006f60015481565b6040519081526020015b60405180910390f35b600054610095906001600160a01b031681565b6040516001600160a01b039091168152602001610079565b6100646100bb3660046101bb565b61015c565b6000546001600160a01b031633146100f35760405162461bcd60e51b81526004016100ea906101d4565b60405180910390fd5b600154604051637ed66abb60e11b815282916001600160a01b0383169163fdacd576916101269160040190815260200190565b600060405180830381600087803b15801561014057600080fd5b505af1158015610154573d6000803e3d6000fd5b505050505050565b6000546001600160a01b031633146101865760405162461bcd60e51b81526004016100ea906101d4565b600155565b60006020828403121561019d57600080fd5b81356001600160a01b03811681146101b457600080fd5b9392505050565b6000602082840312156101cd57600080fd5b5035919050565b60208082526034908201527f546869732066756e6374696f6e206973207265737472696374656420746f2074604082015273686520636f6e74726163742773206f776e65722160601b60608201526080019056fea264697066735822122065cc9a8a5de3ea9c2f0f39d25156994cc3a12657ecf169e795221ed2359eeb7c64736f6c63430008110033",
    "linkReferences": {}
  },
  "methodIdentifiers": {
    "last_completed_migration()": "445df0ac",
    "owner()": "8da5cb5b",
    "setCompleted(uint256)": "fdacd576",
    "upgrade(address)": "0900f010"
  },
  "id": 0
}