{
  "abi": [
    {
      "inputs": [],
      "stateMutability": "nonpayable",
      "type": "constructor"
    },
    {
      "anonymous": false,
      "inputs": [
        {
          "indexed": true,
          "internalType": "address",
          "name": "from",
          "type": "address"
        },
        {
          "indexed": true,
          "internalType": "address",
          "name": "to",
          "type": "address"
        },
        {
          "indexed": true,
          "internalType": "uint256",
          "name": "tokenId",
          "type": "uint256"
        }
      ],
      "name": "Transfer",
      "type": "event"
    },
    {
      "inputs": [
        {
          "internalType": "string",
          "name": "_kryptoBird",
          "type": "string"
        }
      ],
      "name": "_mint",
      "outputs": [],
      "stateMutability": "nonpayable",
      "type": "function"
    },
    {
      "inputs": [
        {
          "internalType": "address",
          "name": "_owner",
          "type": "address"
        }
      ],
      "name": "balanceOf",
      "outputs": [
        {
          "internalType": "uint256",
          "name": "",
          "type": "uint256"
        }
      ],
      "stateMutability": "view",
      "type": "function"
    },
    {
      "inputs": [
        {
          "internalType": "uint256",
          "name": "",
          "type": "uint256"
        }
      ],
      "name": "kryptoBirdz",
      "outputs": [
        {
          "internalType": "string",
          "name": "",
          "type": "string"
        }
      ],
      "stateMutability": "view",
      "type": "function"
    },
    {
      "inputs": [],
      "name": "name",
      "outputs": [
        {
          "internalType": "string",
          "name": "",
          "type": "string"
        }
      ],
      "stateMutability": "view",
      "type": "function"
    },
    {
      "inputs": [
        {
          "internalType": "uint256",
          "name": "tokenId",
          "type": "uint256"
        }
      ],
      "name": "ownerOf",
      "outputs": [
        {
          "internalType": "address",
          "name": "",
          "type": "address"
        }
      ],
      "stateMutability": "view",
      "type": "function"
    },
    {
      "inputs": [],
      "name": "symbol",
      "outputs": [
        {
          "internalType": "string",
          "name": "",
          "type": "string"
        }
      ],
      "stateMutability": "view",
      "type": "function"
    },
    {
      "inputs": [
        {
          "internalType": "uint256",
          "name": "index",
          "type": "uint256"
        }
      ],
      "name": "tokenByIndex",
      "outputs": [
        {
          "internalType": "uint256",
          "name": "",
          "type": "uint256"
        }
      ],
      "stateMutability": "view",
      "type": "function"
    },
    {
      "inputs": [
        {
          "internalType": "address",
          "name": "_owner",
          "type": "address"
        },
        {
          "internalType": "uint256",
          "name": "index",
          "type": "uint256"
        }
      ],
      "name": "tokenOfOwnerByIndex",
      "outputs": [
        {
          "internalType": "uint256",
          "name": "",
          "type": "uint256"
        }
      ],
      "stateMutability": "view",
      "type": "function"
    },
    {
      "inputs": [],
      "name": "totalSupply",
      "outputs": [
        {
          "internalType": "uint256",
          "name": "",
          "type": "uint256"
        }
      ],
      "stateMutability": "view",
      "type": "function"
    }
  ],
  "bytecode": {
    "object": "0x60806040523480156200001157600080fd5b506040518060400160405280600a81526020016912dc9e5c1d1bd09a5c9960b21b8152506040518060400160405280600681526020016525a124a9222d60d11b8152508181816000908162000067919062000126565b50600162000076828262000126565b5050505050620001f2565b634e487b7160e01b600052604160045260246000fd5b600181811c90821680620000ac57607f821691505b602082108103620000cd57634e487b7160e01b600052602260045260246000fd5b50919050565b601f8211156200012157600081815260208120601f850160051c81016020861015620000fc5750805b601f850160051c820191505b818110156200011d5782815560010162000108565b5050505b505050565b81516001600160401b0381111562000142576200014262000081565b6200015a8162000153845462000097565b84620000d3565b602080601f831160018114620001925760008415620001795750858301515b600019600386901b1c1916600185901b1785556200011d565b600085815260208120601f198616915b82811015620001c357888601518255948401946001909101908401620001a2565b5085821015620001e25787850151600019600388901b60f8161c191681555b5050505050600190811b01905550565b610adf80620002026000396000f3fe608060405234801561001057600080fd5b50600436106100935760003560e01c80634f6ccce7116100665780634f6ccce7146100f05780636352211e1461010357806370a082311461012e57806393ab6e561461014157806395d89b411461015457600080fd5b806306fdde031461009857806318160ddd146100b65780632f745c59146100c85780634b493863146100db575b600080fd5b6100a061015c565b6040516100ad9190610777565b60405180910390f35b6004545b6040519081526020016100ad565b6100ba6100d63660046107c6565b6101ee565b6100ee6100e9366004610806565b61028a565b005b6100ba6100fe3660046108b7565b610382565b6101166101113660046108b7565b61040a565b6040516001600160a01b0390911681526020016100ad565b6100ba61013c3660046108d0565b61045e565b6100a061014f3660046108b7565b6104c6565b6100a0610572565b60606000805461016b906108f2565b80601f0160208091040260200160405190810160405280929190818152602001828054610197906108f2565b80156101e45780601f106101b9576101008083540402835291602001916101e4565b820191906000526020600020905b8154815290600101906020018083116101c757829003601f168201915b5050505050905090565b6000816101fa8461045e565b1161024c5760405162461bcd60e51b815260206004820152601960248201527f6f776e657220696e646578206f7574206f6620626f756e64730000000000000060448201526064015b60405180910390fd5b6001600160a01b03831660009081526006602052604090208054839081106102765761027661092c565b906000526020600020015490505b92915050565b60098160405161029a9190610942565b9081526040519081900360200190205460ff16156102f15760405162461bcd60e51b81526020600482015260146024820152734572726f7220616c72656164792065786973747360601b6044820152606401610243565b600880546001810182556000919091527ff3f7a9fe364faab93b216da50a3214154f22a0a2b415b23a84c8169e8b636ee30161032d82826109ad565b5060085460009061034090600190610a83565b905061034c3382610581565b600160098360405161035e9190610942565b908152604051908190036020019020805491151560ff199092169190911790555050565b600061038d60045490565b82106103e55760405162461bcd60e51b815260206004820152602160248201527f676c6f62616c20696e646578206265796f6e6420746f74616c20737570706c796044820152602160f81b6064820152608401610243565b600482815481106103f8576103f861092c565b90600052602060002001549050919050565b6000818152600260205260408120546001600160a01b0316806102845760405162461bcd60e51b815260206004820152600c60248201526b1b9bdb88195e1a5cdd185b9d60a21b6044820152606401610243565b60006001600160a01b0382166104aa5760405162461bcd60e51b815260206004820152601160248201527063616e742062652030206164647265737360781b6044820152606401610243565b506001600160a01b031660009081526003602052604090205490565b600881815481106104d657600080fd5b9060005260206000200160009150905080546104f1906108f2565b80601f016020809104026020016040519081016040528092919081815260200182805461051d906108f2565b801561056a5780601f1061053f5761010080835404028352916020019161056a565b820191906000526020600020905b81548152906001019060200180831161054d57829003601f168201915b505050505081565b60606001805461016b906108f2565b61058b8282610610565b6105d381600480546000838152600560205260408120829055600182018355919091527f8a35acfbc15ff81a39ae7d344fd709f28e8600b4aa8c65c6b64bfe7fe36bd19b0155565b6001600160a01b03919091166000908152600660209081526040808320805460018101825581855283852001859055549383526007909152902055565b6001600160a01b0382166106665760405162461bcd60e51b815260206004820152601760248201527f43616e74206d696e7420746f20302061646472657373200000000000000000006044820152606401610243565b6000818152600260205260409020546001600160a01b0316156106cb5760405162461bcd60e51b815260206004820152601760248201527f5468697320746f6b656e20616c7265616479206d696e740000000000000000006044820152606401610243565b600081815260026020908152604080832080546001600160a01b0319166001600160a01b038716908117909155835260039091528120805460019290610712908490610a96565b909155505060405181906001600160a01b038416906000907fddf252ad1be2c89b69c2b068fc378daa952ba7f163c4a11628f55a4df523b3ef908290a45050565b60005b8381101561076e578181015183820152602001610756565b50506000910152565b6020815260008251806020840152610796816040850160208701610753565b601f01601f19169190910160400192915050565b80356001600160a01b03811681146107c157600080fd5b919050565b600080604083850312156107d957600080fd5b6107e2836107aa565b946020939093013593505050565b634e487b7160e01b600052604160045260246000fd5b60006020828403121561081857600080fd5b813567ffffffffffffffff8082111561083057600080fd5b818401915084601f83011261084457600080fd5b813581811115610856576108566107f0565b604051601f8201601f19908116603f0116810190838211818310171561087e5761087e6107f0565b8160405282815287602084870101111561089757600080fd5b826020860160208301376000928101602001929092525095945050505050565b6000602082840312156108c957600080fd5b5035919050565b6000602082840312156108e257600080fd5b6108eb826107aa565b9392505050565b600181811c9082168061090657607f821691505b60208210810361092657634e487b7160e01b600052602260045260246000fd5b50919050565b634e487b7160e01b600052603260045260246000fd5b60008251610954818460208701610753565b9190910192915050565b601f8211156109a857600081815260208120601f850160051c810160208610156109855750805b601f850160051c820191505b818110156109a457828155600101610991565b5050505b505050565b815167ffffffffffffffff8111156109c7576109c76107f0565b6109db816109d584546108f2565b8461095e565b602080601f831160018114610a1057600084156109f85750858301515b600019600386901b1c1916600185901b1785556109a4565b600085815260208120601f198616915b82811015610a3f57888601518255948401946001909101908401610a20565b5085821015610a5d5787850151600019600388901b60f8161c191681555b5050505050600190811b01905550565b634e487b7160e01b600052601160045260246000fd5b8181038181111561028457610284610a6d565b8082018082111561028457610284610a6d56fea2646970667358221220ef5736ef5f7f018651cb8afbfec63ea0f3de49cda8b4461fd8f443a64fe943ef64736f6c63430008110033",
    "linkReferences": {}
  },
  "methodIdentifiers": {
    "_mint(string)": "4b493863",
    "balanceOf(address)": "70a08231",
    "kryptoBirdz(uint256)": "93ab6e56",
    "name()": "06fdde03",
    "ownerOf(uint256)": "6352211e",
    "symbol()": "95d89b41",
    "tokenByIndex(uint256)": "4f6ccce7",
    "tokenOfOwnerByIndex(address,uint256)": "2f745c59",
    "totalSupply()": "18160ddd"
  },
  "id": 4
}