{
  "abi": [
    {
      "inputs": [],
      "stateMutability": "nonpayable",
      "type": "constructor"
    },
    {
      "anonymous": false,
      "inputs": [
        {
          "indexed": true,
          "internalType": "address",
          "name": "from",
          "type": "address"
        },
        {
          "indexed": true,
          "internalType": "address",
          "name": "to",
          "type": "address"
        },
        {
          "indexed": true,
          "internalType": "uint256",
          "name": "tokenId",
          "type": "uint256"
        }
      ],
      "name": "Transfer",
      "type": "event"
    },
    {
      "inputs": [
        {
          "internalType": "string",
          "name": "_kryptoBird",
          "type": "string"
        }
      ],
      "name": "_mint",
      "outputs": [],
      "stateMutability": "nonpayable",
      "type": "function"
    },
    {
      "inputs": [
        {
          "internalType": "address",
          "name": "_owner",
          "type": "address"
        }
      ],
      "name": "balanceOf",
      "outputs": [
        {
          "internalType": "uint256",
          "name": "",
          "type": "uint256"
        }
      ],
      "stateMutability": "view",
      "type": "function"
    },
    {
      "inputs": [
        {
          "internalType": "uint256",
          "name": "",
          "type": "uint256"
        }
      ],
      "name": "kryptoBirdz",
      "outputs": [
        {
          "internalType": "string",
          "name": "",
          "type": "string"
        }
      ],
      "stateMutability": "view",
      "type": "function"
    },
    {
      "inputs": [],
      "name": "name",
      "outputs": [
        {
          "internalType": "string",
          "name": "",
          "type": "string"
        }
      ],
      "stateMutability": "view",
      "type": "function"
    },
    {
      "inputs": [],
      "name": "symbol",
      "outputs": [
        {
          "internalType": "string",
          "name": "",
          "type": "string"
        }
      ],
      "stateMutability": "view",
      "type": "function"
    }
  ],
  "bytecode": {
    "object": "0x608060405234801561001057600080fd5b506040518060400160405280600a81526020016912dc9e5c1d1bd09a5c9960b21b8152506040518060400160405280600681526020016525a124a9222d60d11b81525081818160009081610064919061011a565b506001610071828261011a565b50505050506101d9565b634e487b7160e01b600052604160045260246000fd5b600181811c908216806100a557607f821691505b6020821081036100c557634e487b7160e01b600052602260045260246000fd5b50919050565b601f82111561011557600081815260208120601f850160051c810160208610156100f25750805b601f850160051c820191505b81811015610111578281556001016100fe565b5050505b505050565b81516001600160401b038111156101335761013361007b565b610147816101418454610091565b846100cb565b602080601f83116001811461017c57600084156101645750858301515b600019600386901b1c1916600185901b178555610111565b600085815260208120601f198616915b828110156101ab5788860151825594840194600190910190840161018c565b50858210156101c95787850151600019600388901b60f8161c191681555b5050505050600190811b01905550565b6107fe806101e86000396000f3fe608060405234801561001057600080fd5b50600436106100575760003560e01c806306fdde031461005c5780634b4938631461007a57806370a082311461008f57806393ab6e56146100b057806395d89b41146100c3575b600080fd5b6100646100cb565b60405161007191906104de565b60405180910390f35b61008d610088366004610527565b61015d565b005b6100a261009d3660046105d8565b61025a565b604051908152602001610071565b6100646100be366004610608565b6102bc565b610064610368565b6060600080546100da90610621565b80601f016020809104026020016040519081016040528092919081815260200182805461010690610621565b80156101535780601f1061012857610100808354040283529160200191610153565b820191906000526020600020905b81548152906001019060200180831161013657829003601f168201915b5050505050905090565b60058160405161016d919061065b565b9081526040519081900360200190205460ff16156101c95760405162461bcd60e51b81526020600482015260146024820152734572726f7220616c72656164792065786973747360601b60448201526064015b60405180910390fd5b600480546001810182556000919091527f8a35acfbc15ff81a39ae7d344fd709f28e8600b4aa8c65c6b64bfe7fe36bd19b0161020582826106c6565b506004546000906102189060019061079c565b90506102243382610377565b6001600583604051610236919061065b565b908152604051908190036020019020805491151560ff199092169190911790555050565b60006001600160a01b0382166102a65760405162461bcd60e51b815260206004820152601160248201527063616e742062652030206164647265737360781b60448201526064016101c0565b6001600160a01b03909116600052600360205290565b600481815481106102cc57600080fd5b9060005260206000200160009150905080546102e790610621565b80601f016020809104026020016040519081016040528092919081815260200182805461031390610621565b80156103605780601f1061033557610100808354040283529160200191610360565b820191906000526020600020905b81548152906001019060200180831161034357829003601f168201915b505050505081565b6060600180546100da90610621565b6001600160a01b0382166103cd5760405162461bcd60e51b815260206004820152601760248201527f43616e74206d696e7420746f203020616464726573732000000000000000000060448201526064016101c0565b6000818152600260205260409020546001600160a01b0316156104325760405162461bcd60e51b815260206004820152601760248201527f5468697320746f6b656e20616c7265616479206d696e7400000000000000000060448201526064016101c0565b600081815260026020908152604080832080546001600160a01b0319166001600160a01b0387169081179091558352600390915281208054600192906104799084906107b5565b909155505060405181906001600160a01b038416906000907fddf252ad1be2c89b69c2b068fc378daa952ba7f163c4a11628f55a4df523b3ef908290a45050565b60005b838110156104d55781810151838201526020016104bd565b50506000910152565b60208152600082518060208401526104fd8160408501602087016104ba565b601f01601f19169190910160400192915050565b634e487b7160e01b600052604160045260246000fd5b60006020828403121561053957600080fd5b813567ffffffffffffffff8082111561055157600080fd5b818401915084601f83011261056557600080fd5b81358181111561057757610577610511565b604051601f8201601f19908116603f0116810190838211818310171561059f5761059f610511565b816040528281528760208487010111156105b857600080fd5b826020860160208301376000928101602001929092525095945050505050565b6000602082840312156105ea57600080fd5b81356001600160a01b038116811461060157600080fd5b9392505050565b60006020828403121561061a57600080fd5b5035919050565b600181811c9082168061063557607f821691505b60208210810361065557634e487b7160e01b600052602260045260246000fd5b50919050565b6000825161066d8184602087016104ba565b9190910192915050565b601f8211156106c157600081815260208120601f850160051c8101602086101561069e5750805b601f850160051c820191505b818110156106bd578281556001016106aa565b5050505b505050565b815167ffffffffffffffff8111156106e0576106e0610511565b6106f4816106ee8454610621565b84610677565b602080601f83116001811461072957600084156107115750858301515b600019600386901b1c1916600185901b1785556106bd565b600085815260208120601f198616915b8281101561075857888601518255948401946001909101908401610739565b50858210156107765787850151600019600388901b60f8161c191681555b5050505050600190811b01905550565b634e487b7160e01b600052601160045260246000fd5b818103818111156107af576107af610786565b92915050565b808201808211156107af576107af61078656fea26469706673582212207d991bb66fbd63db1c9be40ce53fc67f140be52ad7957202dbd1776e40d46ac964736f6c63430008110033",
    "linkReferences": {}
  },
  "methodIdentifiers": {
    "_mint(string)": "4b493863",
    "balanceOf(address)": "70a08231",
    "kryptoBirdz(uint256)": "93ab6e56",
    "name()": "06fdde03",
    "symbol()": "95d89b41"
  },
  "id": 3
}