{
  "abi": [
    {
      "anonymous": false,
      "inputs": [
        {
          "indexed": true,
          "internalType": "address",
          "name": "from",
          "type": "address"
        },
        {
          "indexed": true,
          "internalType": "address",
          "name": "to",
          "type": "address"
        },
        {
          "indexed": true,
          "internalType": "uint256",
          "name": "tokenId",
          "type": "uint256"
        }
      ],
      "name": "Transfer",
      "type": "event"
    },
    {
      "inputs": [
        {
          "internalType": "address",
          "name": "_owner",
          "type": "address"
        }
      ],
      "name": "balanceOf",
      "outputs": [
        {
          "internalType": "uint256",
          "name": "",
          "type": "uint256"
        }
      ],
      "stateMutability": "view",
      "type": "function"
    }
  ],
  "bytecode": {
    "object": "0x608060405234801561001057600080fd5b50610117806100206000396000f3fe6080604052348015600f57600080fd5b506004361060285760003560e01c806370a0823114602d575b600080fd5b603c603836600460b3565b604e565b60405190815260200160405180910390f35b60006001600160a01b038216609d5760405162461bcd60e51b815260206004820152601160248201527063616e742062652030206164647265737360781b604482015260640160405180910390fd5b6001600160a01b03909116600052600160205290565b60006020828403121560c457600080fd5b81356001600160a01b038116811460da57600080fd5b939250505056fea2646970667358221220832d0900605e06e3a7ae2409989a1c990202ee74cefe9dbcc75f6fc30bca079764736f6c63430008110033",
    "linkReferences": {}
  },
  "methodIdentifiers": {
    "balanceOf(address)": "70a08231"
  },
  "id": 0
}