{
  "contractName": "ERC721",
  "abi": [
    {
      "anonymous": false,
      "inputs": [
        {
          "indexed": true,
          "internalType": "address",
          "name": "from",
          "type": "address"
        },
        {
          "indexed": true,
          "internalType": "address",
          "name": "to",
          "type": "address"
        },
        {
          "indexed": true,
          "internalType": "uint256",
          "name": "tokenId",
          "type": "uint256"
        }
      ],
      "name": "Transfer",
      "type": "event"
    },
    {
      "inputs": [
        {
          "internalType": "address",
          "name": "_owner",
          "type": "address"
        }
      ],
      "name": "balanceOf",
      "outputs": [
        {
          "internalType": "uint256",
          "name": "",
          "type": "uint256"
        }
      ],
      "stateMutability": "view",
      "type": "function"
    },
    {
      "inputs": [
        {
          "internalType": "uint256",
          "name": "tokenId",
          "type": "uint256"
        }
      ],
      "name": "ownerOf",
      "outputs": [
        {
          "internalType": "address",
          "name": "",
          "type": "address"
        }
      ],
      "stateMutability": "view",
      "type": "function"
    },
    {
      "inputs": [
        {
          "internalType": "address",
          "name": "_from",
          "type": "address"
        },
        {
          "internalType": "address",
          "name": "_to",
          "type": "address"
        },
        {
          "internalType": "uint256",
          "name": "tokenId",
          "type": "uint256"
        }
      ],
      "name": "transferFrom",
      "outputs": [],
      "stateMutability": "payable",
      "type": "function"
    }
  ],
  "bytecode": "0x608060405234801561001057600080fd5b5061080e806100206000396000f3fe6080604052600436106100345760003560e01c806323b872dd146100395780636352211e1461005557806370a0823114610092575b600080fd5b610053600480360381019061004e91906104eb565b6100cf565b005b34801561006157600080fd5b5061007c6004803603810190610077919061053e565b6100df565b604051610089919061057a565b60405180910390f35b34801561009e57600080fd5b506100b960048036038101906100b49190610595565b61018f565b6040516100c691906105d1565b60405180910390f35b6100da838383610246565b505050565b60008060008084815260200190815260200160002060009054906101000a900473ffffffffffffffffffffffffffffffffffffffff169050600073ffffffffffffffffffffffffffffffffffffffff168173ffffffffffffffffffffffffffffffffffffffff1603610186576040517f08c379a000000000000000000000000000000000000000000000000000000000815260040161017d90610649565b60405180910390fd5b80915050919050565b60008073ffffffffffffffffffffffffffffffffffffffff168273ffffffffffffffffffffffffffffffffffffffff16036101ff576040517f08c379a00000000000000000000000000000000000000000000000000000000081526004016101f6906106b5565b60405180910390fd5b600160008373ffffffffffffffffffffffffffffffffffffffff1673ffffffffffffffffffffffffffffffffffffffff168152602001908152602001600020549050919050565b600073ffffffffffffffffffffffffffffffffffffffff168273ffffffffffffffffffffffffffffffffffffffff16036102b5576040517f08c379a00000000000000000000000000000000000000000000000000000000081526004016102ac90610721565b60405180910390fd5b8273ffffffffffffffffffffffffffffffffffffffff166102d5826100df565b73ffffffffffffffffffffffffffffffffffffffff16146102f557600080fd5b8160008083815260200190815260200160002060006101000a81548173ffffffffffffffffffffffffffffffffffffffff021916908373ffffffffffffffffffffffffffffffffffffffff16021790555060018060008573ffffffffffffffffffffffffffffffffffffffff1673ffffffffffffffffffffffffffffffffffffffff16815260200190815260200160002060008282546103959190610770565b9250508190555060018060008473ffffffffffffffffffffffffffffffffffffffff1673ffffffffffffffffffffffffffffffffffffffff16815260200190815260200160002060008282546103eb91906107a4565b92505081905550808273ffffffffffffffffffffffffffffffffffffffff168473ffffffffffffffffffffffffffffffffffffffff167fddf252ad1be2c89b69c2b068fc378daa952ba7f163c4a11628f55a4df523b3ef60405160405180910390a4505050565b600080fd5b600073ffffffffffffffffffffffffffffffffffffffff82169050919050565b600061048282610457565b9050919050565b61049281610477565b811461049d57600080fd5b50565b6000813590506104af81610489565b92915050565b6000819050919050565b6104c8816104b5565b81146104d357600080fd5b50565b6000813590506104e5816104bf565b92915050565b60008060006060848603121561050457610503610452565b5b6000610512868287016104a0565b9350506020610523868287016104a0565b9250506040610534868287016104d6565b9150509250925092565b60006020828403121561055457610553610452565b5b6000610562848285016104d6565b91505092915050565b61057481610477565b82525050565b600060208201905061058f600083018461056b565b92915050565b6000602082840312156105ab576105aa610452565b5b60006105b9848285016104a0565b91505092915050565b6105cb816104b5565b82525050565b60006020820190506105e660008301846105c2565b92915050565b600082825260208201905092915050565b7f6e6f6e206578697374616e740000000000000000000000000000000000000000600082015250565b6000610633600c836105ec565b915061063e826105fd565b602082019050919050565b6000602082019050818103600083015261066281610626565b9050919050565b7f63616e7420626520302061646472657373000000000000000000000000000000600082015250565b600061069f6011836105ec565b91506106aa82610669565b602082019050919050565b600060208201905081810360008301526106ce81610692565b9050919050565b7f6572726f72207472616e7366657220746f203020616464726573730000000000600082015250565b600061070b601b836105ec565b9150610716826106d5565b602082019050919050565b6000602082019050818103600083015261073a816106fe565b9050919050565b7f4e487b7100000000000000000000000000000000000000000000000000000000600052601160045260246000fd5b600061077b826104b5565b9150610786836104b5565b925082820390508181111561079e5761079d610741565b5b92915050565b60006107af826104b5565b91506107ba836104b5565b92508282019050808211156107d2576107d1610741565b5b9291505056fea2646970667358221220ba590a649cbec010e72a78027c8b2232f78ba18d8d3f6eb45ce92343eb22539e64736f6c63430008110033",
  "immutableReferences": {},
  "source": "// SPDX-License-Identifier: MIT\npragma solidity  ^0.8.0;\n\ncontract ERC721 {\n\nevent Transfer(\n    address indexed from, \n    address indexed to, \n    uint256 indexed tokenId);\n    /* \n\n    building out the minting function:\n    \n       we want the nft to point to an address\n       to keep track of the token ids\n       keep track of token owner addresses to token ids\n       keep track of how many token an owner adress has\n       create even that emits a transfer log - contract address, where it is being minted to, id.\n\n*/ \n\n// mapping in solidity creates a hash table of key-pair values\n// Mapping from token id to owner\n\nmapping(uint256 => address) private _tokenOwner; \n\n// Mapping from owner to number of owned tokens\n\nmapping(address => uint256) private _OwnedTokensCount;\n\n// Mapping from tokenId to approved addresses\n\nmapping(uint256 => address) private _tokenApprovals;\n\nfunction balanceOf(address _owner) public view returns(uint256) {\n    require(_owner != address(0), \"cant be 0 address\");\n      return _OwnedTokensCount[_owner];\n}\n\n    function ownerOf(uint256 tokenId) public view returns (address){\n        address owner = _tokenOwner[tokenId];\n        require( owner != address(0), 'non existant');\n        return owner;\n    }\n\n\nfunction _exists(uint256 tokenId) internal view returns(bool) {\n    // setting the address of nft owner to check the mapping of the tokenId (if it already exists)\n    address owner = _tokenOwner[tokenId];\n    // return the truthfulness that the address is not zero\n    return owner != address(0);\n}\n\n\nfunction _mint(address to, uint256 tokenId) internal virtual {\n    require(to != address(0) , 'Cant mint to 0 address ');\n   // we require that the function _exists with tokenId is false\n    require(!_exists(tokenId), 'This token already mint');\n    // we are assigning the tokenId to the address minting\n    _tokenOwner[tokenId] = to;\n    _OwnedTokensCount[to] += 1;\n\n    emit Transfer(address(0), to, tokenId);\n}\n\n    \n    ///  TO CONFIRM THAT `_to` IS CAPABLE OF RECEIVING NFTS OR ELSE\n    ///  THEY MAY BE PERMANENTLY LOST\n    /// @dev Throws unless `msg.sender` is the current owner, an authorized\n    ///  operator, or the approved address for this NFT. Throws if `_from` is\n    ///  not the current owner. Throws if `_to` is the zero address. Throws if\n    ///  `_tokenId` is not a valid NFT.\n    /// @param _from The current owner of the NFT\n    /// @param _to The new owner\n    /// @param tokenId The NFT to transfer\n\n    function _transferFrom(address _from, address _to, uint256 tokenId) internal{\n        require(_to != address(0) ,\"error transfer to 0 address\");\n        require(ownerOf(tokenId) == _from);\n        _tokenOwner[tokenId] = _to;\n        _OwnedTokensCount[_from] -= 1;\n        _OwnedTokensCount[_to] += 1;\n\n     emit Transfer(_from, _to, tokenId);\n\n    // this function is internal because it s the main transfer function not the callable one in our\n    //contract.\n    }\n\n    function transferFrom(address _from, address _to, uint256 tokenId) public payable {\n        _transferFrom(_from, _to, tokenId);\n    } // this is the actual callable function.\n\n\n}",
  "sourcePath": "/Users/georgetzortzakis/Desktop/nft-marketplace-starter-kit-main/src/contracts/ERC721.sol",
  "compiler": {
    "name": "solc",
    "version": "0.8.17+commit.8df45f5f.Emscripten.clang"
  },
  "schemaVersion": "3.4.10",
  "updatedAt": "2022-10-25T03:53:02.579Z",
  "devdoc": {
    "kind": "dev",
    "methods": {},
    "version": 1
  },
  "userdoc": {
    "kind": "user",
    "methods": {},
    "version": 1
  }
}