{
  "contractName": "KryptoBird",
  "abi": [
    {
      "inputs": [],
      "stateMutability": "nonpayable",
      "type": "constructor"
    },
    {
      "anonymous": false,
      "inputs": [
        {
          "indexed": true,
          "internalType": "address",
          "name": "from",
          "type": "address"
        },
        {
          "indexed": true,
          "internalType": "address",
          "name": "to",
          "type": "address"
        },
        {
          "indexed": true,
          "internalType": "uint256",
          "name": "tokenId",
          "type": "uint256"
        }
      ],
      "name": "Transfer",
      "type": "event"
    },
    {
      "inputs": [
        {
          "internalType": "address",
          "name": "_owner",
          "type": "address"
        }
      ],
      "name": "balanceOf",
      "outputs": [
        {
          "internalType": "uint256",
          "name": "",
          "type": "uint256"
        }
      ],
      "stateMutability": "view",
      "type": "function",
      "constant": true
    },
    {
      "inputs": [
        {
          "internalType": "uint256",
          "name": "",
          "type": "uint256"
        }
      ],
      "name": "kryptoBirdz",
      "outputs": [
        {
          "internalType": "string",
          "name": "",
          "type": "string"
        }
      ],
      "stateMutability": "view",
      "type": "function",
      "constant": true
    },
    {
      "inputs": [],
      "name": "name",
      "outputs": [
        {
          "internalType": "string",
          "name": "",
          "type": "string"
        }
      ],
      "stateMutability": "view",
      "type": "function",
      "constant": true
    },
    {
      "inputs": [
        {
          "internalType": "uint256",
          "name": "tokenId",
          "type": "uint256"
        }
      ],
      "name": "ownerOf",
      "outputs": [
        {
          "internalType": "address",
          "name": "",
          "type": "address"
        }
      ],
      "stateMutability": "view",
      "type": "function",
      "constant": true
    },
    {
      "inputs": [],
      "name": "symbol",
      "outputs": [
        {
          "internalType": "string",
          "name": "",
          "type": "string"
        }
      ],
      "stateMutability": "view",
      "type": "function",
      "constant": true
    },
    {
      "inputs": [
        {
          "internalType": "uint256",
          "name": "index",
          "type": "uint256"
        }
      ],
      "name": "tokenByIndex",
      "outputs": [
        {
          "internalType": "uint256",
          "name": "",
          "type": "uint256"
        }
      ],
      "stateMutability": "view",
      "type": "function",
      "constant": true
    },
    {
      "inputs": [
        {
          "internalType": "address",
          "name": "_owner",
          "type": "address"
        },
        {
          "internalType": "uint256",
          "name": "index",
          "type": "uint256"
        }
      ],
      "name": "tokenOfOwnerByIndex",
      "outputs": [
        {
          "internalType": "uint256",
          "name": "",
          "type": "uint256"
        }
      ],
      "stateMutability": "view",
      "type": "function",
      "constant": true
    },
    {
      "inputs": [],
      "name": "totalSupply",
      "outputs": [
        {
          "internalType": "uint256",
          "name": "",
          "type": "uint256"
        }
      ],
      "stateMutability": "view",
      "type": "function",
      "constant": true
    },
    {
      "inputs": [
        {
          "internalType": "address",
          "name": "_from",
          "type": "address"
        },
        {
          "internalType": "address",
          "name": "_to",
          "type": "address"
        },
        {
          "internalType": "uint256",
          "name": "tokenId",
          "type": "uint256"
        }
      ],
      "name": "transferFrom",
      "outputs": [],
      "stateMutability": "payable",
      "type": "function",
      "payable": true
    },
    {
      "inputs": [
        {
          "internalType": "string",
          "name": "_kryptoBird",
          "type": "string"
        }
      ],
      "name": "_mint",
      "outputs": [],
      "stateMutability": "nonpayable",
      "type": "function"
    }
  ],
  "bytecode": "0x60806040523480156200001157600080fd5b506040518060400160405280600a81526020017f4b727970746f42697264000000000000000000000000000000000000000000008152506040518060400160405280600681526020017f4b424952445a00000000000000000000000000000000000000000000000000008152508181816000908162000091919062000328565b508060019081620000a3919062000328565b50505050506200040f565b600081519050919050565b7f4e487b7100000000000000000000000000000000000000000000000000000000600052604160045260246000fd5b7f4e487b7100000000000000000000000000000000000000000000000000000000600052602260045260246000fd5b600060028204905060018216806200013057607f821691505b602082108103620001465762000145620000e8565b5b50919050565b60008190508160005260206000209050919050565b60006020601f8301049050919050565b600082821b905092915050565b600060088302620001b07fffffffffffffffffffffffffffffffffffffffffffffffffffffffffffffffff8262000171565b620001bc868362000171565b95508019841693508086168417925050509392505050565b6000819050919050565b6000819050919050565b60006200020962000203620001fd84620001d4565b620001de565b620001d4565b9050919050565b6000819050919050565b6200022583620001e8565b6200023d620002348262000210565b8484546200017e565b825550505050565b600090565b6200025462000245565b620002618184846200021a565b505050565b5b8181101562000289576200027d6000826200024a565b60018101905062000267565b5050565b601f821115620002d857620002a2816200014c565b620002ad8462000161565b81016020851015620002bd578190505b620002d5620002cc8562000161565b83018262000266565b50505b505050565b600082821c905092915050565b6000620002fd60001984600802620002dd565b1980831691505092915050565b6000620003188383620002ea565b9150826002028217905092915050565b6200033382620000ae565b67ffffffffffffffff8111156200034f576200034e620000b9565b5b6200035b825462000117565b620003688282856200028d565b600060209050601f831160018114620003a057600084156200038b578287015190505b6200039785826200030a565b86555062000407565b601f198416620003b0866200014c565b60005b82811015620003da57848901518255600182019150602085019450602081019050620003b3565b86831015620003fa5784890151620003f6601f891682620002ea565b8355505b6001600288020188555050505b505050505050565b61193b806200041f6000396000f3fe6080604052600436106100915760003560e01c80634f6ccce7116100595780634f6ccce71461016e5780636352211e146101ab57806370a08231146101e857806393ab6e561461022557806395d89b411461026257610091565b806306fdde031461009657806318160ddd146100c157806323b872dd146100ec5780632f745c59146101085780634b49386314610145575b600080fd5b3480156100a257600080fd5b506100ab61028d565b6040516100b89190610dff565b60405180910390f35b3480156100cd57600080fd5b506100d661031f565b6040516100e39190610e3a565b60405180910390f35b61010660048036038101906101019190610ef3565b61032c565b005b34801561011457600080fd5b5061012f600480360381019061012a9190610f46565b61033c565b60405161013c9190610e3a565b60405180910390f35b34801561015157600080fd5b5061016c600480360381019061016791906110bb565b6103ec565b005b34801561017a57600080fd5b5061019560048036038101906101909190611104565b6104e8565b6040516101a29190610e3a565b60405180910390f35b3480156101b757600080fd5b506101d260048036038101906101cd9190611104565b610559565b6040516101df9190611140565b60405180910390f35b3480156101f457600080fd5b5061020f600480360381019061020a919061115b565b61060a565b60405161021c9190610e3a565b60405180910390f35b34801561023157600080fd5b5061024c60048036038101906102479190611104565b6106c1565b6040516102599190610dff565b60405180910390f35b34801561026e57600080fd5b5061027761076d565b6040516102849190610dff565b60405180910390f35b60606000805461029c906111b7565b80601f01602080910402602001604051908101604052809291908181526020018280546102c8906111b7565b80156103155780601f106102ea57610100808354040283529160200191610315565b820191906000526020600020905b8154815290600101906020018083116102f857829003601f168201915b5050505050905090565b6000600580549050905090565b6103378383836107ff565b505050565b6000816103488461060a565b11610388576040517f08c379a000000000000000000000000000000000000000000000000000000000815260040161037f90611234565b60405180910390fd5b600760008473ffffffffffffffffffffffffffffffffffffffff1673ffffffffffffffffffffffffffffffffffffffff16815260200190815260200160002082815481106103d9576103d8611254565b5b9060005260206000200154905092915050565b600a816040516103fc91906112bf565b908152602001604051809103902060009054906101000a900460ff1615610458576040517f08c379a000000000000000000000000000000000000000000000000000000000815260040161044f90611322565b60405180910390fd5b60098190806001815401808255809150506001900390600052602060002001600090919091909150908161048c91906114ee565b50600060016009805490506104a191906115ef565b90506104ad3382610a0e565b6001600a836040516104bf91906112bf565b908152602001604051809103902060006101000a81548160ff0219169083151502179055505050565b60006104f261031f565b8210610533576040517f08c379a000000000000000000000000000000000000000000000000000000000815260040161052a90611695565b60405180910390fd5b6005828154811061054757610546611254565b5b90600052602060002001549050919050565b6000806002600084815260200190815260200160002060009054906101000a900473ffffffffffffffffffffffffffffffffffffffff169050600073ffffffffffffffffffffffffffffffffffffffff168173ffffffffffffffffffffffffffffffffffffffff1603610601576040517f08c379a00000000000000000000000000000000000000000000000000000000081526004016105f890611701565b60405180910390fd5b80915050919050565b60008073ffffffffffffffffffffffffffffffffffffffff168273ffffffffffffffffffffffffffffffffffffffff160361067a576040517f08c379a00000000000000000000000000000000000000000000000000000000081526004016106719061176d565b60405180910390fd5b600360008373ffffffffffffffffffffffffffffffffffffffff1673ffffffffffffffffffffffffffffffffffffffff168152602001908152602001600020549050919050565b600981815481106106d157600080fd5b9060005260206000200160009150905080546106ec906111b7565b80601f0160208091040260200160405190810160405280929190818152602001828054610718906111b7565b80156107655780601f1061073a57610100808354040283529160200191610765565b820191906000526020600020905b81548152906001019060200180831161074857829003601f168201915b505050505081565b60606001805461077c906111b7565b80601f01602080910402602001604051908101604052809291908181526020018280546107a8906111b7565b80156107f55780601f106107ca576101008083540402835291602001916107f5565b820191906000526020600020905b8154815290600101906020018083116107d857829003601f168201915b5050505050905090565b600073ffffffffffffffffffffffffffffffffffffffff168273ffffffffffffffffffffffffffffffffffffffff160361086e576040517f08c379a0000000000000000000000000000000000000000000000000000000008152600401610865906117d9565b60405180910390fd5b8273ffffffffffffffffffffffffffffffffffffffff1661088e82610559565b73ffffffffffffffffffffffffffffffffffffffff16146108ae57600080fd5b816002600083815260200190815260200160002060006101000a81548173ffffffffffffffffffffffffffffffffffffffff021916908373ffffffffffffffffffffffffffffffffffffffff1602179055506001600360008573ffffffffffffffffffffffffffffffffffffffff1673ffffffffffffffffffffffffffffffffffffffff168152602001908152602001600020600082825461095091906115ef565b925050819055506001600360008473ffffffffffffffffffffffffffffffffffffffff1673ffffffffffffffffffffffffffffffffffffffff16815260200190815260200160002060008282546109a791906117f9565b92505081905550808273ffffffffffffffffffffffffffffffffffffffff168473ffffffffffffffffffffffffffffffffffffffff167fddf252ad1be2c89b69c2b068fc378daa952ba7f163c4a11628f55a4df523b3ef60405160405180910390a4505050565b610a188282610a2f565b610a2181610bf0565b610a2b8282610c39565b5050565b600073ffffffffffffffffffffffffffffffffffffffff168273ffffffffffffffffffffffffffffffffffffffff1603610a9e576040517f08c379a0000000000000000000000000000000000000000000000000000000008152600401610a9590611879565b60405180910390fd5b610aa781610cfd565b15610ae7576040517f08c379a0000000000000000000000000000000000000000000000000000000008152600401610ade906118e5565b60405180910390fd5b816002600083815260200190815260200160002060006101000a81548173ffffffffffffffffffffffffffffffffffffffff021916908373ffffffffffffffffffffffffffffffffffffffff1602179055506001600360008473ffffffffffffffffffffffffffffffffffffffff1673ffffffffffffffffffffffffffffffffffffffff1681526020019081526020016000206000828254610b8991906117f9565b92505081905550808273ffffffffffffffffffffffffffffffffffffffff16600073ffffffffffffffffffffffffffffffffffffffff167fddf252ad1be2c89b69c2b068fc378daa952ba7f163c4a11628f55a4df523b3ef60405160405180910390a45050565b6005805490506006600083815260200190815260200160002081905550600581908060018154018082558091505060019003906000526020600020016000909190919091505550565b600760008373ffffffffffffffffffffffffffffffffffffffff1673ffffffffffffffffffffffffffffffffffffffff168152602001908152602001600020819080600181540180825580915050600190039060005260206000200160009091909190915055600760008373ffffffffffffffffffffffffffffffffffffffff1673ffffffffffffffffffffffffffffffffffffffff1681526020019081526020016000208054905060086000838152602001908152602001600020819055505050565b6000806002600084815260200190815260200160002060009054906101000a900473ffffffffffffffffffffffffffffffffffffffff169050600073ffffffffffffffffffffffffffffffffffffffff168173ffffffffffffffffffffffffffffffffffffffff161415915050919050565b600081519050919050565b600082825260208201905092915050565b60005b83811015610da9578082015181840152602081019050610d8e565b60008484015250505050565b6000601f19601f8301169050919050565b6000610dd182610d6f565b610ddb8185610d7a565b9350610deb818560208601610d8b565b610df481610db5565b840191505092915050565b60006020820190508181036000830152610e198184610dc6565b905092915050565b6000819050919050565b610e3481610e21565b82525050565b6000602082019050610e4f6000830184610e2b565b92915050565b6000604051905090565b600080fd5b600080fd5b600073ffffffffffffffffffffffffffffffffffffffff82169050919050565b6000610e9482610e69565b9050919050565b610ea481610e89565b8114610eaf57600080fd5b50565b600081359050610ec181610e9b565b92915050565b610ed081610e21565b8114610edb57600080fd5b50565b600081359050610eed81610ec7565b92915050565b600080600060608486031215610f0c57610f0b610e5f565b5b6000610f1a86828701610eb2565b9350506020610f2b86828701610eb2565b9250506040610f3c86828701610ede565b9150509250925092565b60008060408385031215610f5d57610f5c610e5f565b5b6000610f6b85828601610eb2565b9250506020610f7c85828601610ede565b9150509250929050565b600080fd5b600080fd5b7f4e487b7100000000000000000000000000000000000000000000000000000000600052604160045260246000fd5b610fc882610db5565b810181811067ffffffffffffffff82111715610fe757610fe6610f90565b5b80604052505050565b6000610ffa610e55565b90506110068282610fbf565b919050565b600067ffffffffffffffff82111561102657611025610f90565b5b61102f82610db5565b9050602081019050919050565b82818337600083830152505050565b600061105e6110598461100b565b610ff0565b90508281526020810184848401111561107a57611079610f8b565b5b61108584828561103c565b509392505050565b600082601f8301126110a2576110a1610f86565b5b81356110b284826020860161104b565b91505092915050565b6000602082840312156110d1576110d0610e5f565b5b600082013567ffffffffffffffff8111156110ef576110ee610e64565b5b6110fb8482850161108d565b91505092915050565b60006020828403121561111a57611119610e5f565b5b600061112884828501610ede565b91505092915050565b61113a81610e89565b82525050565b60006020820190506111556000830184611131565b92915050565b60006020828403121561117157611170610e5f565b5b600061117f84828501610eb2565b91505092915050565b7f4e487b7100000000000000000000000000000000000000000000000000000000600052602260045260246000fd5b600060028204905060018216806111cf57607f821691505b6020821081036111e2576111e1611188565b5b50919050565b7f6f776e657220696e646578206f7574206f6620626f756e647300000000000000600082015250565b600061121e601983610d7a565b9150611229826111e8565b602082019050919050565b6000602082019050818103600083015261124d81611211565b9050919050565b7f4e487b7100000000000000000000000000000000000000000000000000000000600052603260045260246000fd5b600081905092915050565b600061129982610d6f565b6112a38185611283565b93506112b3818560208601610d8b565b80840191505092915050565b60006112cb828461128e565b915081905092915050565b7f4572726f7220616c726561647920657869737473000000000000000000000000600082015250565b600061130c601483610d7a565b9150611317826112d6565b602082019050919050565b6000602082019050818103600083015261133b816112ff565b9050919050565b60008190508160005260206000209050919050565b60006020601f8301049050919050565b600082821b905092915050565b6000600883026113a47fffffffffffffffffffffffffffffffffffffffffffffffffffffffffffffffff82611367565b6113ae8683611367565b95508019841693508086168417925050509392505050565b6000819050919050565b60006113eb6113e66113e184610e21565b6113c6565b610e21565b9050919050565b6000819050919050565b611405836113d0565b611419611411826113f2565b848454611374565b825550505050565b600090565b61142e611421565b6114398184846113fc565b505050565b5b8181101561145d57611452600082611426565b60018101905061143f565b5050565b601f8211156114a25761147381611342565b61147c84611357565b8101602085101561148b578190505b61149f61149785611357565b83018261143e565b50505b505050565b600082821c905092915050565b60006114c5600019846008026114a7565b1980831691505092915050565b60006114de83836114b4565b9150826002028217905092915050565b6114f782610d6f565b67ffffffffffffffff8111156115105761150f610f90565b5b61151a82546111b7565b611525828285611461565b600060209050601f8311600181146115585760008415611546578287015190505b61155085826114d2565b8655506115b8565b601f19841661156686611342565b60005b8281101561158e57848901518255600182019150602085019450602081019050611569565b868310156115ab57848901516115a7601f8916826114b4565b8355505b6001600288020188555050505b505050505050565b7f4e487b7100000000000000000000000000000000000000000000000000000000600052601160045260246000fd5b60006115fa82610e21565b915061160583610e21565b925082820390508181111561161d5761161c6115c0565b5b92915050565b7f676c6f62616c20696e646578206265796f6e6420746f74616c20737570706c7960008201527f2100000000000000000000000000000000000000000000000000000000000000602082015250565b600061167f602183610d7a565b915061168a82611623565b604082019050919050565b600060208201905081810360008301526116ae81611672565b9050919050565b7f6e6f6e206578697374616e740000000000000000000000000000000000000000600082015250565b60006116eb600c83610d7a565b91506116f6826116b5565b602082019050919050565b6000602082019050818103600083015261171a816116de565b9050919050565b7f63616e7420626520302061646472657373000000000000000000000000000000600082015250565b6000611757601183610d7a565b915061176282611721565b602082019050919050565b600060208201905081810360008301526117868161174a565b9050919050565b7f6572726f72207472616e7366657220746f203020616464726573730000000000600082015250565b60006117c3601b83610d7a565b91506117ce8261178d565b602082019050919050565b600060208201905081810360008301526117f2816117b6565b9050919050565b600061180482610e21565b915061180f83610e21565b9250828201905080821115611827576118266115c0565b5b92915050565b7f43616e74206d696e7420746f2030206164647265737320000000000000000000600082015250565b6000611863601783610d7a565b915061186e8261182d565b602082019050919050565b6000602082019050818103600083015261189281611856565b9050919050565b7f5468697320746f6b656e20616c7265616479206d696e74000000000000000000600082015250565b60006118cf601783610d7a565b91506118da82611899565b602082019050919050565b600060208201905081810360008301526118fe816118c2565b905091905056fea26469706673582212201593fbfacc4168a49482da69ca1daf99308df29cf1a18ab2cc88ea9618eaf99364736f6c63430008110033",
  "immutableReferences": {},
  "source": "// SPDX-License-Identifier: MIT\npragma solidity  ^0.8.0;\n\nimport './ERC721Connector.sol';\n\ncontract KryptoBird is ERC721Connector {\n\n\n     // array to store our NFTs\n     string[] public kryptoBirdz;\n\n     mapping(string => bool) _kryptoBirdzExist;\n\n     function _mint(string memory _kryptoBird) public {\n\n        require(!_kryptoBirdzExist[_kryptoBird], \"Error already exists\");\n\n        kryptoBirdz.push(_kryptoBird);\n        uint _id = kryptoBirdz.length -1;\n\n        _mint(msg.sender, _id);\n\n        _kryptoBirdzExist[_kryptoBird] = true;\n     }\n\n    constructor ()ERC721Connector('KryptoBird', 'KBIRDZ') {}\n}\n",
  "sourcePath": "/Users/georgetzortzakis/Desktop/nft-marketplace-starter-kit-main/src/contracts/KryptoBirdz.sol",
  "compiler": {
    "name": "solc",
    "version": "0.8.17+commit.8df45f5f.Emscripten.clang"
  },
  "schemaVersion": "3.4.10",
  "updatedAt": "2022-10-25T03:53:09.388Z",
  "networkType": "ethereum",
  "devdoc": {
    "kind": "dev",
    "methods": {},
    "version": 1
  },
  "userdoc": {
    "kind": "user",
    "methods": {},
    "version": 1
  }
}