{
  "contractName": "KryptoBird",
  "abi": [
    {
      "inputs": [],
      "stateMutability": "nonpayable",
      "type": "constructor"
    },
    {
      "anonymous": false,
      "inputs": [
        {
          "indexed": true,
          "internalType": "address",
          "name": "from",
          "type": "address"
        },
        {
          "indexed": true,
          "internalType": "address",
          "name": "to",
          "type": "address"
        },
        {
          "indexed": true,
          "internalType": "uint256",
          "name": "tokenId",
          "type": "uint256"
        }
      ],
      "name": "Transfer",
      "type": "event"
    },
    {
      "inputs": [
        {
          "internalType": "address",
          "name": "_owner",
          "type": "address"
        }
      ],
      "name": "balanceOf",
      "outputs": [
        {
          "internalType": "uint256",
          "name": "",
          "type": "uint256"
        }
      ],
      "stateMutability": "view",
      "type": "function",
      "constant": true
    },
    {
      "inputs": [
        {
          "internalType": "uint256",
          "name": "",
          "type": "uint256"
        }
      ],
      "name": "kryptoBirdz",
      "outputs": [
        {
          "internalType": "string",
          "name": "",
          "type": "string"
        }
      ],
      "stateMutability": "view",
      "type": "function",
      "constant": true
    },
    {
      "inputs": [],
      "name": "name",
      "outputs": [
        {
          "internalType": "string",
          "name": "",
          "type": "string"
        }
      ],
      "stateMutability": "view",
      "type": "function",
      "constant": true
    },
    {
      "inputs": [
        {
          "internalType": "uint256",
          "name": "tokenId",
          "type": "uint256"
        }
      ],
      "name": "ownerOf",
      "outputs": [
        {
          "internalType": "address",
          "name": "",
          "type": "address"
        }
      ],
      "stateMutability": "view",
      "type": "function",
      "constant": true
    },
    {
      "inputs": [],
      "name": "symbol",
      "outputs": [
        {
          "internalType": "string",
          "name": "",
          "type": "string"
        }
      ],
      "stateMutability": "view",
      "type": "function",
      "constant": true
    },
    {
      "inputs": [],
      "name": "totalSupply",
      "outputs": [
        {
          "internalType": "uint256",
          "name": "",
          "type": "uint256"
        }
      ],
      "stateMutability": "view",
      "type": "function",
      "constant": true
    },
    {
      "inputs": [
        {
          "internalType": "string",
          "name": "_kryptoBird",
          "type": "string"
        }
      ],
      "name": "_mint",
      "outputs": [],
      "stateMutability": "nonpayable",
      "type": "function"
    }
  ],
  "bytecode": "0x60806040523480156200001157600080fd5b506040518060400160405280600a81526020017f4b727970746f42697264000000000000000000000000000000000000000000008152506040518060400160405280600681526020017f4b424952445a00000000000000000000000000000000000000000000000000008152508181816000908162000091919062000328565b508060019081620000a3919062000328565b50505050506200040f565b600081519050919050565b7f4e487b7100000000000000000000000000000000000000000000000000000000600052604160045260246000fd5b7f4e487b7100000000000000000000000000000000000000000000000000000000600052602260045260246000fd5b600060028204905060018216806200013057607f821691505b602082108103620001465762000145620000e8565b5b50919050565b60008190508160005260206000209050919050565b60006020601f8301049050919050565b600082821b905092915050565b600060088302620001b07fffffffffffffffffffffffffffffffffffffffffffffffffffffffffffffffff8262000171565b620001bc868362000171565b95508019841693508086168417925050509392505050565b6000819050919050565b6000819050919050565b60006200020962000203620001fd84620001d4565b620001de565b620001d4565b9050919050565b6000819050919050565b6200022583620001e8565b6200023d620002348262000210565b8484546200017e565b825550505050565b600090565b6200025462000245565b620002618184846200021a565b505050565b5b8181101562000289576200027d6000826200024a565b60018101905062000267565b5050565b601f821115620002d857620002a2816200014c565b620002ad8462000161565b81016020851015620002bd578190505b620002d5620002cc8562000161565b83018262000266565b50505b505050565b600082821c905092915050565b6000620002fd60001984600802620002dd565b1980831691505092915050565b6000620003188383620002ea565b9150826002028217905092915050565b6200033382620000ae565b67ffffffffffffffff8111156200034f576200034e620000b9565b5b6200035b825462000117565b620003688282856200028d565b600060209050601f831160018114620003a057600084156200038b578287015190505b6200039785826200030a565b86555062000407565b601f198416620003b0866200014c565b60005b82811015620003da57848901518255600182019150602085019450602081019050620003b3565b86831015620003fa5784890151620003f6601f891682620002ea565b8355505b6001600288020188555050505b505050505050565b6111df806200041f6000396000f3fe608060405234801561001057600080fd5b506004361061007d5760003560e01c80636352211e1161005b5780636352211e146100da57806370a082311461010a57806393ab6e561461013a57806395d89b411461016a5761007d565b806306fdde031461008257806318160ddd146100a05780634b493863146100be575b600080fd5b61008a610188565b60405161009791906108cf565b60405180910390f35b6100a861021a565b6040516100b5919061090a565b60405180910390f35b6100d860048036038101906100d39190610a6e565b610227565b005b6100f460048036038101906100ef9190610ae3565b610323565b6040516101019190610b51565b60405180910390f35b610124600480360381019061011f9190610b98565b6103d4565b604051610131919061090a565b60405180910390f35b610154600480360381019061014f9190610ae3565b61048b565b60405161016191906108cf565b60405180910390f35b610172610537565b60405161017f91906108cf565b60405180910390f35b60606000805461019790610bf4565b80601f01602080910402602001604051908101604052809291908181526020018280546101c390610bf4565b80156102105780601f106101e557610100808354040283529160200191610210565b820191906000526020600020905b8154815290600101906020018083116101f357829003601f168201915b5050505050905090565b6000600480549050905090565b6009816040516102379190610c61565b908152602001604051809103902060009054906101000a900460ff1615610293576040517f08c379a000000000000000000000000000000000000000000000000000000000815260040161028a90610cc4565b60405180910390fd5b6008819080600181540180825580915050600190039060005260206000200160009091909190915090816102c79190610e90565b50600060016008805490506102dc9190610f91565b90506102e833826105c9565b60016009836040516102fa9190610c61565b908152602001604051809103902060006101000a81548160ff0219169083151502179055505050565b6000806002600084815260200190815260200160002060009054906101000a900473ffffffffffffffffffffffffffffffffffffffff169050600073ffffffffffffffffffffffffffffffffffffffff168173ffffffffffffffffffffffffffffffffffffffff16036103cb576040517f08c379a00000000000000000000000000000000000000000000000000000000081526004016103c290611011565b60405180910390fd5b80915050919050565b60008073ffffffffffffffffffffffffffffffffffffffff168273ffffffffffffffffffffffffffffffffffffffff1603610444576040517f08c379a000000000000000000000000000000000000000000000000000000000815260040161043b9061107d565b60405180910390fd5b600360008373ffffffffffffffffffffffffffffffffffffffff1673ffffffffffffffffffffffffffffffffffffffff168152602001908152602001600020549050919050565b6008818154811061049b57600080fd5b9060005260206000200160009150905080546104b690610bf4565b80601f01602080910402602001604051908101604052809291908181526020018280546104e290610bf4565b801561052f5780601f106105045761010080835404028352916020019161052f565b820191906000526020600020905b81548152906001019060200180831161051257829003601f168201915b505050505081565b60606001805461054690610bf4565b80601f016020809104026020016040519081016040528092919081815260200182805461057290610bf4565b80156105bf5780601f10610594576101008083540402835291602001916105bf565b820191906000526020600020905b8154815290600101906020018083116105a257829003601f168201915b5050505050905090565b6105d382826105e0565b6105dc816107a1565b5050565b600073ffffffffffffffffffffffffffffffffffffffff168273ffffffffffffffffffffffffffffffffffffffff160361064f576040517f08c379a0000000000000000000000000000000000000000000000000000000008152600401610646906110e9565b60405180910390fd5b610658816107cd565b15610698576040517f08c379a000000000000000000000000000000000000000000000000000000000815260040161068f90611155565b60405180910390fd5b816002600083815260200190815260200160002060006101000a81548173ffffffffffffffffffffffffffffffffffffffff021916908373ffffffffffffffffffffffffffffffffffffffff1602179055506001600360008473ffffffffffffffffffffffffffffffffffffffff1673ffffffffffffffffffffffffffffffffffffffff168152602001908152602001600020600082825461073a9190611175565b92505081905550808273ffffffffffffffffffffffffffffffffffffffff16600073ffffffffffffffffffffffffffffffffffffffff167fddf252ad1be2c89b69c2b068fc378daa952ba7f163c4a11628f55a4df523b3ef60405160405180910390a45050565b600481908060018154018082558091505060019003906000526020600020016000909190919091505550565b6000806002600084815260200190815260200160002060009054906101000a900473ffffffffffffffffffffffffffffffffffffffff169050600073ffffffffffffffffffffffffffffffffffffffff168173ffffffffffffffffffffffffffffffffffffffff161415915050919050565b600081519050919050565b600082825260208201905092915050565b60005b8381101561087957808201518184015260208101905061085e565b60008484015250505050565b6000601f19601f8301169050919050565b60006108a18261083f565b6108ab818561084a565b93506108bb81856020860161085b565b6108c481610885565b840191505092915050565b600060208201905081810360008301526108e98184610896565b905092915050565b6000819050919050565b610904816108f1565b82525050565b600060208201905061091f60008301846108fb565b92915050565b6000604051905090565b600080fd5b600080fd5b600080fd5b600080fd5b7f4e487b7100000000000000000000000000000000000000000000000000000000600052604160045260246000fd5b61097b82610885565b810181811067ffffffffffffffff8211171561099a57610999610943565b5b80604052505050565b60006109ad610925565b90506109b98282610972565b919050565b600067ffffffffffffffff8211156109d9576109d8610943565b5b6109e282610885565b9050602081019050919050565b82818337600083830152505050565b6000610a11610a0c846109be565b6109a3565b905082815260208101848484011115610a2d57610a2c61093e565b5b610a388482856109ef565b509392505050565b600082601f830112610a5557610a54610939565b5b8135610a658482602086016109fe565b91505092915050565b600060208284031215610a8457610a8361092f565b5b600082013567ffffffffffffffff811115610aa257610aa1610934565b5b610aae84828501610a40565b91505092915050565b610ac0816108f1565b8114610acb57600080fd5b50565b600081359050610add81610ab7565b92915050565b600060208284031215610af957610af861092f565b5b6000610b0784828501610ace565b91505092915050565b600073ffffffffffffffffffffffffffffffffffffffff82169050919050565b6000610b3b82610b10565b9050919050565b610b4b81610b30565b82525050565b6000602082019050610b666000830184610b42565b92915050565b610b7581610b30565b8114610b8057600080fd5b50565b600081359050610b9281610b6c565b92915050565b600060208284031215610bae57610bad61092f565b5b6000610bbc84828501610b83565b91505092915050565b7f4e487b7100000000000000000000000000000000000000000000000000000000600052602260045260246000fd5b60006002820490506001821680610c0c57607f821691505b602082108103610c1f57610c1e610bc5565b5b50919050565b600081905092915050565b6000610c3b8261083f565b610c458185610c25565b9350610c5581856020860161085b565b80840191505092915050565b6000610c6d8284610c30565b915081905092915050565b7f4572726f7220616c726561647920657869737473000000000000000000000000600082015250565b6000610cae60148361084a565b9150610cb982610c78565b602082019050919050565b60006020820190508181036000830152610cdd81610ca1565b9050919050565b60008190508160005260206000209050919050565b60006020601f8301049050919050565b600082821b905092915050565b600060088302610d467fffffffffffffffffffffffffffffffffffffffffffffffffffffffffffffffff82610d09565b610d508683610d09565b95508019841693508086168417925050509392505050565b6000819050919050565b6000610d8d610d88610d83846108f1565b610d68565b6108f1565b9050919050565b6000819050919050565b610da783610d72565b610dbb610db382610d94565b848454610d16565b825550505050565b600090565b610dd0610dc3565b610ddb818484610d9e565b505050565b5b81811015610dff57610df4600082610dc8565b600181019050610de1565b5050565b601f821115610e4457610e1581610ce4565b610e1e84610cf9565b81016020851015610e2d578190505b610e41610e3985610cf9565b830182610de0565b50505b505050565b600082821c905092915050565b6000610e6760001984600802610e49565b1980831691505092915050565b6000610e808383610e56565b9150826002028217905092915050565b610e998261083f565b67ffffffffffffffff811115610eb257610eb1610943565b5b610ebc8254610bf4565b610ec7828285610e03565b600060209050601f831160018114610efa5760008415610ee8578287015190505b610ef28582610e74565b865550610f5a565b601f198416610f0886610ce4565b60005b82811015610f3057848901518255600182019150602085019450602081019050610f0b565b86831015610f4d5784890151610f49601f891682610e56565b8355505b6001600288020188555050505b505050505050565b7f4e487b7100000000000000000000000000000000000000000000000000000000600052601160045260246000fd5b6000610f9c826108f1565b9150610fa7836108f1565b9250828203905081811115610fbf57610fbe610f62565b5b92915050565b7f6e6f6e206578697374616e740000000000000000000000000000000000000000600082015250565b6000610ffb600c8361084a565b915061100682610fc5565b602082019050919050565b6000602082019050818103600083015261102a81610fee565b9050919050565b7f63616e7420626520302061646472657373000000000000000000000000000000600082015250565b600061106760118361084a565b915061107282611031565b602082019050919050565b600060208201905081810360008301526110968161105a565b9050919050565b7f43616e74206d696e7420746f2030206164647265737320000000000000000000600082015250565b60006110d360178361084a565b91506110de8261109d565b602082019050919050565b60006020820190508181036000830152611102816110c6565b9050919050565b7f5468697320746f6b656e20616c7265616479206d696e74000000000000000000600082015250565b600061113f60178361084a565b915061114a82611109565b602082019050919050565b6000602082019050818103600083015261116e81611132565b9050919050565b6000611180826108f1565b915061118b836108f1565b92508282019050808211156111a3576111a2610f62565b5b9291505056fea264697066735822122061d8e2334564e9508268fe0c1338cc01fdd40485ed7e0fef2d4d2a982e4c680764736f6c63430008110033",
  "immutableReferences": {},
  "source": "// SPDX-License-Identifier: MIT\npragma solidity  ^0.8.0;\n\nimport './ERC721Connector.sol';\n\ncontract KryptoBird is ERC721Connector {\n\n\n     // array to store our NFTs\n     string[] public kryptoBirdz;\n\n     mapping(string => bool) _kryptoBirdzExist;\n\n     function _mint(string memory _kryptoBird) public {\n\n        require(!_kryptoBirdzExist[_kryptoBird], \"Error already exists\");\n\n        kryptoBirdz.push(_kryptoBird);\n        uint _id = kryptoBirdz.length -1;\n\n        _mint(msg.sender, _id);\n\n        _kryptoBirdzExist[_kryptoBird] = true;\n     }\n\n    constructor ()ERC721Connector('KryptoBird', 'KBIRDZ') {}\n}\n",
  "sourcePath": "/Users/georgetzortzakis/Desktop/nft-marketplace-starter-kit-main/src/contracts/KryptoBirdz.sol",
  "compiler": {
    "name": "solc",
    "version": "0.8.17+commit.8df45f5f.Emscripten.clang"
  },
  "schemaVersion": "3.4.10",
  "updatedAt": "2022-10-22T20:37:23.676Z",
  "networkType": "ethereum",
  "devdoc": {
    "kind": "dev",
    "methods": {},
    "version": 1
  },
  "userdoc": {
    "kind": "user",
    "methods": {},
    "version": 1
  }
}