{
  "contractName": "KryptoBird",
  "abi": [
    {
      "inputs": [],
      "stateMutability": "nonpayable",
      "type": "constructor"
    },
    {
      "anonymous": false,
      "inputs": [
        {
          "indexed": true,
          "internalType": "address",
          "name": "from",
          "type": "address"
        },
        {
          "indexed": true,
          "internalType": "address",
          "name": "to",
          "type": "address"
        },
        {
          "indexed": true,
          "internalType": "uint256",
          "name": "tokenId",
          "type": "uint256"
        }
      ],
      "name": "Transfer",
      "type": "event"
    },
    {
      "inputs": [
        {
          "internalType": "address",
          "name": "_owner",
          "type": "address"
        }
      ],
      "name": "balanceOf",
      "outputs": [
        {
          "internalType": "uint256",
          "name": "",
          "type": "uint256"
        }
      ],
      "stateMutability": "view",
      "type": "function",
      "constant": true
    },
    {
      "inputs": [
        {
          "internalType": "uint256",
          "name": "",
          "type": "uint256"
        }
      ],
      "name": "kryptoBirdz",
      "outputs": [
        {
          "internalType": "string",
          "name": "",
          "type": "string"
        }
      ],
      "stateMutability": "view",
      "type": "function",
      "constant": true
    },
    {
      "inputs": [],
      "name": "name",
      "outputs": [
        {
          "internalType": "string",
          "name": "",
          "type": "string"
        }
      ],
      "stateMutability": "view",
      "type": "function",
      "constant": true
    },
    {
      "inputs": [
        {
          "internalType": "uint256",
          "name": "tokenId",
          "type": "uint256"
        }
      ],
      "name": "ownerOf",
      "outputs": [
        {
          "internalType": "address",
          "name": "",
          "type": "address"
        }
      ],
      "stateMutability": "view",
      "type": "function",
      "constant": true
    },
    {
      "inputs": [],
      "name": "symbol",
      "outputs": [
        {
          "internalType": "string",
          "name": "",
          "type": "string"
        }
      ],
      "stateMutability": "view",
      "type": "function",
      "constant": true
    },
    {
      "inputs": [
        {
          "internalType": "string",
          "name": "_kryptoBird",
          "type": "string"
        }
      ],
      "name": "_mint",
      "outputs": [],
      "stateMutability": "nonpayable",
      "type": "function"
    }
  ],
  "bytecode": "0x60806040523480156200001157600080fd5b506040518060400160405280600a81526020017f4b727970746f42697264000000000000000000000000000000000000000000008152506040518060400160405280600681526020017f4b424952445a00000000000000000000000000000000000000000000000000008152508181816000908162000091919062000328565b508060019081620000a3919062000328565b50505050506200040f565b600081519050919050565b7f4e487b7100000000000000000000000000000000000000000000000000000000600052604160045260246000fd5b7f4e487b7100000000000000000000000000000000000000000000000000000000600052602260045260246000fd5b600060028204905060018216806200013057607f821691505b602082108103620001465762000145620000e8565b5b50919050565b60008190508160005260206000209050919050565b60006020601f8301049050919050565b600082821b905092915050565b600060088302620001b07fffffffffffffffffffffffffffffffffffffffffffffffffffffffffffffffff8262000171565b620001bc868362000171565b95508019841693508086168417925050509392505050565b6000819050919050565b6000819050919050565b60006200020962000203620001fd84620001d4565b620001de565b620001d4565b9050919050565b6000819050919050565b6200022583620001e8565b6200023d620002348262000210565b8484546200017e565b825550505050565b600090565b6200025462000245565b620002618184846200021a565b505050565b5b8181101562000289576200027d6000826200024a565b60018101905062000267565b5050565b601f821115620002d857620002a2816200014c565b620002ad8462000161565b81016020851015620002bd578190505b620002d5620002cc8562000161565b83018262000266565b50505b505050565b600082821c905092915050565b6000620002fd60001984600802620002dd565b1980831691505092915050565b6000620003188383620002ea565b9150826002028217905092915050565b6200033382620000ae565b67ffffffffffffffff8111156200034f576200034e620000b9565b5b6200035b825462000117565b620003688282856200028d565b600060209050601f831160018114620003a057600084156200038b578287015190505b6200039785826200030a565b86555062000407565b601f198416620003b0866200014c565b60005b82811015620003da57848901518255600182019150602085019450602081019050620003b3565b86831015620003fa5784890151620003f6601f891682620002ea565b8355505b6001600288020188555050505b505050505050565b611156806200041f6000396000f3fe608060405234801561001057600080fd5b50600436106100625760003560e01c806306fdde03146100675780634b493863146100855780636352211e146100a157806370a08231146100d157806393ab6e561461010157806395d89b4114610131575b600080fd5b61006f61014f565b60405161007c9190610846565b60405180910390f35b61009f600480360381019061009a91906109b1565b6101e1565b005b6100bb60048036038101906100b69190610a30565b6102dd565b6040516100c89190610a9e565b60405180910390f35b6100eb60048036038101906100e69190610ae5565b61038e565b6040516100f89190610b21565b60405180910390f35b61011b60048036038101906101169190610a30565b610445565b6040516101289190610846565b60405180910390f35b6101396104f1565b6040516101469190610846565b60405180910390f35b60606000805461015e90610b6b565b80601f016020809104026020016040519081016040528092919081815260200182805461018a90610b6b565b80156101d75780601f106101ac576101008083540402835291602001916101d7565b820191906000526020600020905b8154815290600101906020018083116101ba57829003601f168201915b5050505050905090565b6005816040516101f19190610bd8565b908152602001604051809103902060009054906101000a900460ff161561024d576040517f08c379a000000000000000000000000000000000000000000000000000000000815260040161024490610c3b565b60405180910390fd5b6004819080600181540180825580915050600190039060005260206000200160009091909190915090816102819190610e07565b50600060016004805490506102969190610f08565b90506102a23382610583565b60016005836040516102b49190610bd8565b908152602001604051809103902060006101000a81548160ff0219169083151502179055505050565b6000806002600084815260200190815260200160002060009054906101000a900473ffffffffffffffffffffffffffffffffffffffff169050600073ffffffffffffffffffffffffffffffffffffffff168173ffffffffffffffffffffffffffffffffffffffff1603610385576040517f08c379a000000000000000000000000000000000000000000000000000000000815260040161037c90610f88565b60405180910390fd5b80915050919050565b60008073ffffffffffffffffffffffffffffffffffffffff168273ffffffffffffffffffffffffffffffffffffffff16036103fe576040517f08c379a00000000000000000000000000000000000000000000000000000000081526004016103f590610ff4565b60405180910390fd5b600360008373ffffffffffffffffffffffffffffffffffffffff1673ffffffffffffffffffffffffffffffffffffffff168152602001908152602001600020549050919050565b6004818154811061045557600080fd5b90600052602060002001600091509050805461047090610b6b565b80601f016020809104026020016040519081016040528092919081815260200182805461049c90610b6b565b80156104e95780601f106104be576101008083540402835291602001916104e9565b820191906000526020600020905b8154815290600101906020018083116104cc57829003601f168201915b505050505081565b60606001805461050090610b6b565b80601f016020809104026020016040519081016040528092919081815260200182805461052c90610b6b565b80156105795780601f1061054e57610100808354040283529160200191610579565b820191906000526020600020905b81548152906001019060200180831161055c57829003601f168201915b5050505050905090565b600073ffffffffffffffffffffffffffffffffffffffff168273ffffffffffffffffffffffffffffffffffffffff16036105f2576040517f08c379a00000000000000000000000000000000000000000000000000000000081526004016105e990611060565b60405180910390fd5b6105fb81610744565b1561063b576040517f08c379a0000000000000000000000000000000000000000000000000000000008152600401610632906110cc565b60405180910390fd5b816002600083815260200190815260200160002060006101000a81548173ffffffffffffffffffffffffffffffffffffffff021916908373ffffffffffffffffffffffffffffffffffffffff1602179055506001600360008473ffffffffffffffffffffffffffffffffffffffff1673ffffffffffffffffffffffffffffffffffffffff16815260200190815260200160002060008282546106dd91906110ec565b92505081905550808273ffffffffffffffffffffffffffffffffffffffff16600073ffffffffffffffffffffffffffffffffffffffff167fddf252ad1be2c89b69c2b068fc378daa952ba7f163c4a11628f55a4df523b3ef60405160405180910390a45050565b6000806002600084815260200190815260200160002060009054906101000a900473ffffffffffffffffffffffffffffffffffffffff169050600073ffffffffffffffffffffffffffffffffffffffff168173ffffffffffffffffffffffffffffffffffffffff161415915050919050565b600081519050919050565b600082825260208201905092915050565b60005b838110156107f05780820151818401526020810190506107d5565b60008484015250505050565b6000601f19601f8301169050919050565b6000610818826107b6565b61082281856107c1565b93506108328185602086016107d2565b61083b816107fc565b840191505092915050565b60006020820190508181036000830152610860818461080d565b905092915050565b6000604051905090565b600080fd5b600080fd5b600080fd5b600080fd5b7f4e487b7100000000000000000000000000000000000000000000000000000000600052604160045260246000fd5b6108be826107fc565b810181811067ffffffffffffffff821117156108dd576108dc610886565b5b80604052505050565b60006108f0610868565b90506108fc82826108b5565b919050565b600067ffffffffffffffff82111561091c5761091b610886565b5b610925826107fc565b9050602081019050919050565b82818337600083830152505050565b600061095461094f84610901565b6108e6565b9050828152602081018484840111156109705761096f610881565b5b61097b848285610932565b509392505050565b600082601f8301126109985761099761087c565b5b81356109a8848260208601610941565b91505092915050565b6000602082840312156109c7576109c6610872565b5b600082013567ffffffffffffffff8111156109e5576109e4610877565b5b6109f184828501610983565b91505092915050565b6000819050919050565b610a0d816109fa565b8114610a1857600080fd5b50565b600081359050610a2a81610a04565b92915050565b600060208284031215610a4657610a45610872565b5b6000610a5484828501610a1b565b91505092915050565b600073ffffffffffffffffffffffffffffffffffffffff82169050919050565b6000610a8882610a5d565b9050919050565b610a9881610a7d565b82525050565b6000602082019050610ab36000830184610a8f565b92915050565b610ac281610a7d565b8114610acd57600080fd5b50565b600081359050610adf81610ab9565b92915050565b600060208284031215610afb57610afa610872565b5b6000610b0984828501610ad0565b91505092915050565b610b1b816109fa565b82525050565b6000602082019050610b366000830184610b12565b92915050565b7f4e487b7100000000000000000000000000000000000000000000000000000000600052602260045260246000fd5b60006002820490506001821680610b8357607f821691505b602082108103610b9657610b95610b3c565b5b50919050565b600081905092915050565b6000610bb2826107b6565b610bbc8185610b9c565b9350610bcc8185602086016107d2565b80840191505092915050565b6000610be48284610ba7565b915081905092915050565b7f4572726f7220616c726561647920657869737473000000000000000000000000600082015250565b6000610c256014836107c1565b9150610c3082610bef565b602082019050919050565b60006020820190508181036000830152610c5481610c18565b9050919050565b60008190508160005260206000209050919050565b60006020601f8301049050919050565b600082821b905092915050565b600060088302610cbd7fffffffffffffffffffffffffffffffffffffffffffffffffffffffffffffffff82610c80565b610cc78683610c80565b95508019841693508086168417925050509392505050565b6000819050919050565b6000610d04610cff610cfa846109fa565b610cdf565b6109fa565b9050919050565b6000819050919050565b610d1e83610ce9565b610d32610d2a82610d0b565b848454610c8d565b825550505050565b600090565b610d47610d3a565b610d52818484610d15565b505050565b5b81811015610d7657610d6b600082610d3f565b600181019050610d58565b5050565b601f821115610dbb57610d8c81610c5b565b610d9584610c70565b81016020851015610da4578190505b610db8610db085610c70565b830182610d57565b50505b505050565b600082821c905092915050565b6000610dde60001984600802610dc0565b1980831691505092915050565b6000610df78383610dcd565b9150826002028217905092915050565b610e10826107b6565b67ffffffffffffffff811115610e2957610e28610886565b5b610e338254610b6b565b610e3e828285610d7a565b600060209050601f831160018114610e715760008415610e5f578287015190505b610e698582610deb565b865550610ed1565b601f198416610e7f86610c5b565b60005b82811015610ea757848901518255600182019150602085019450602081019050610e82565b86831015610ec45784890151610ec0601f891682610dcd565b8355505b6001600288020188555050505b505050505050565b7f4e487b7100000000000000000000000000000000000000000000000000000000600052601160045260246000fd5b6000610f13826109fa565b9150610f1e836109fa565b9250828203905081811115610f3657610f35610ed9565b5b92915050565b7f6e6f6e206578697374616e740000000000000000000000000000000000000000600082015250565b6000610f72600c836107c1565b9150610f7d82610f3c565b602082019050919050565b60006020820190508181036000830152610fa181610f65565b9050919050565b7f63616e7420626520302061646472657373000000000000000000000000000000600082015250565b6000610fde6011836107c1565b9150610fe982610fa8565b602082019050919050565b6000602082019050818103600083015261100d81610fd1565b9050919050565b7f43616e74206d696e7420746f2030206164647265737320000000000000000000600082015250565b600061104a6017836107c1565b915061105582611014565b602082019050919050565b600060208201905081810360008301526110798161103d565b9050919050565b7f5468697320746f6b656e20616c7265616479206d696e74000000000000000000600082015250565b60006110b66017836107c1565b91506110c182611080565b602082019050919050565b600060208201905081810360008301526110e5816110a9565b9050919050565b60006110f7826109fa565b9150611102836109fa565b925082820190508082111561111a57611119610ed9565b5b9291505056fea26469706673582212201a2110df95a16d273a5d7930b43c2fefb17c0f25e2536b78c83c5ac82e42ac1864736f6c63430008110033",
  "immutableReferences": {},
  "source": "// SPDX-License-Identifier: MIT\npragma solidity  ^0.8.0;\n\nimport './ERC721Connector.sol';\n\ncontract KryptoBird is ERC721Connector {\n\n\n     // array to store our NFTs\n     string[] public kryptoBirdz;\n\n     mapping(string => bool) _kryptoBirdzExist;\n\n     function _mint(string memory _kryptoBird) public {\n\n        require(!_kryptoBirdzExist[_kryptoBird], \"Error already exists\");\n\n        kryptoBirdz.push(_kryptoBird);\n        uint _id = kryptoBirdz.length -1;\n\n        _mint(msg.sender, _id);\n\n        _kryptoBirdzExist[_kryptoBird] = true;\n     }\n\n    constructor ()ERC721Connector('KryptoBird', 'KBIRDZ') {}\n}\n",
  "sourcePath": "/Users/georgetzortzakis/Desktop/nft-marketplace-starter-kit-main/src/contracts/KryptoBirdz.sol",
  "compiler": {
    "name": "solc",
    "version": "0.8.17+commit.8df45f5f.Emscripten.clang"
  },
  "schemaVersion": "3.4.10",
  "updatedAt": "2022-10-21T20:43:17.966Z",
  "networkType": "ethereum",
  "devdoc": {
    "kind": "dev",
    "methods": {},
    "version": 1
  },
  "userdoc": {
    "kind": "user",
    "methods": {},
    "version": 1
  }
}