{
  "contractName": "KryptoBird",
  "abi": [
    {
      "inputs": [],
      "stateMutability": "nonpayable",
      "type": "constructor"
    },
    {
      "anonymous": false,
      "inputs": [
        {
          "indexed": true,
          "internalType": "address",
          "name": "from",
          "type": "address"
        },
        {
          "indexed": true,
          "internalType": "address",
          "name": "to",
          "type": "address"
        },
        {
          "indexed": true,
          "internalType": "uint256",
          "name": "tokenId",
          "type": "uint256"
        }
      ],
      "name": "Transfer",
      "type": "event"
    },
    {
      "inputs": [
        {
          "internalType": "address",
          "name": "_owner",
          "type": "address"
        }
      ],
      "name": "balanceOf",
      "outputs": [
        {
          "internalType": "uint256",
          "name": "",
          "type": "uint256"
        }
      ],
      "stateMutability": "view",
      "type": "function",
      "constant": true
    },
    {
      "inputs": [
        {
          "internalType": "uint256",
          "name": "",
          "type": "uint256"
        }
      ],
      "name": "kryptoBirdz",
      "outputs": [
        {
          "internalType": "string",
          "name": "",
          "type": "string"
        }
      ],
      "stateMutability": "view",
      "type": "function",
      "constant": true
    },
    {
      "inputs": [],
      "name": "name",
      "outputs": [
        {
          "internalType": "string",
          "name": "",
          "type": "string"
        }
      ],
      "stateMutability": "view",
      "type": "function",
      "constant": true
    },
    {
      "inputs": [
        {
          "internalType": "uint256",
          "name": "tokenId",
          "type": "uint256"
        }
      ],
      "name": "ownerOf",
      "outputs": [
        {
          "internalType": "address",
          "name": "",
          "type": "address"
        }
      ],
      "stateMutability": "view",
      "type": "function",
      "constant": true
    },
    {
      "inputs": [],
      "name": "symbol",
      "outputs": [
        {
          "internalType": "string",
          "name": "",
          "type": "string"
        }
      ],
      "stateMutability": "view",
      "type": "function",
      "constant": true
    },
    {
      "inputs": [
        {
          "internalType": "uint256",
          "name": "index",
          "type": "uint256"
        }
      ],
      "name": "tokenByIndex",
      "outputs": [
        {
          "internalType": "uint256",
          "name": "",
          "type": "uint256"
        }
      ],
      "stateMutability": "view",
      "type": "function",
      "constant": true
    },
    {
      "inputs": [
        {
          "internalType": "address",
          "name": "_owner",
          "type": "address"
        },
        {
          "internalType": "uint256",
          "name": "index",
          "type": "uint256"
        }
      ],
      "name": "tokenOfOwnerByIndex",
      "outputs": [
        {
          "internalType": "uint256",
          "name": "",
          "type": "uint256"
        }
      ],
      "stateMutability": "view",
      "type": "function",
      "constant": true
    },
    {
      "inputs": [],
      "name": "totalSupply",
      "outputs": [
        {
          "internalType": "uint256",
          "name": "",
          "type": "uint256"
        }
      ],
      "stateMutability": "view",
      "type": "function",
      "constant": true
    },
    {
      "inputs": [
        {
          "internalType": "string",
          "name": "_kryptoBird",
          "type": "string"
        }
      ],
      "name": "_mint",
      "outputs": [],
      "stateMutability": "nonpayable",
      "type": "function"
    }
  ],
  "bytecode": "0x60806040523480156200001157600080fd5b506040518060400160405280600a81526020017f4b727970746f42697264000000000000000000000000000000000000000000008152506040518060400160405280600681526020017f4b424952445a00000000000000000000000000000000000000000000000000008152508181816000908162000091919062000328565b508060019081620000a3919062000328565b50505050506200040f565b600081519050919050565b7f4e487b7100000000000000000000000000000000000000000000000000000000600052604160045260246000fd5b7f4e487b7100000000000000000000000000000000000000000000000000000000600052602260045260246000fd5b600060028204905060018216806200013057607f821691505b602082108103620001465762000145620000e8565b5b50919050565b60008190508160005260206000209050919050565b60006020601f8301049050919050565b600082821b905092915050565b600060088302620001b07fffffffffffffffffffffffffffffffffffffffffffffffffffffffffffffffff8262000171565b620001bc868362000171565b95508019841693508086168417925050509392505050565b6000819050919050565b6000819050919050565b60006200020962000203620001fd84620001d4565b620001de565b620001d4565b9050919050565b6000819050919050565b6200022583620001e8565b6200023d620002348262000210565b8484546200017e565b825550505050565b600090565b6200025462000245565b620002618184846200021a565b505050565b5b8181101562000289576200027d6000826200024a565b60018101905062000267565b5050565b601f821115620002d857620002a2816200014c565b620002ad8462000161565b81016020851015620002bd578190505b620002d5620002cc8562000161565b83018262000266565b50505b505050565b600082821c905092915050565b6000620002fd60001984600802620002dd565b1980831691505092915050565b6000620003188383620002ea565b9150826002028217905092915050565b6200033382620000ae565b67ffffffffffffffff8111156200034f576200034e620000b9565b5b6200035b825462000117565b620003688282856200028d565b600060209050601f831160018114620003a057600084156200038b578287015190505b6200039785826200030a565b86555062000407565b601f198416620003b0866200014c565b60005b82811015620003da57848901518255600182019150602085019450602081019050620003b3565b86831015620003fa5784890151620003f6601f891682620002ea565b8355505b6001600288020188555050505b505050505050565b6115ce806200041f6000396000f3fe608060405234801561001057600080fd5b50600436106100935760003560e01c80634f6ccce7116100665780634f6ccce7146101205780636352211e1461015057806370a082311461018057806393ab6e56146101b057806395d89b41146101e057610093565b806306fdde031461009857806318160ddd146100b65780632f745c59146100d45780634b49386314610104575b600080fd5b6100a06101fe565b6040516100ad9190610b51565b60405180910390f35b6100be610290565b6040516100cb9190610b8c565b60405180910390f35b6100ee60048036038101906100e99190610c45565b61029d565b6040516100fb9190610b8c565b60405180910390f35b61011e60048036038101906101199190610dba565b61034d565b005b61013a60048036038101906101359190610e03565b610449565b6040516101479190610b8c565b60405180910390f35b61016a60048036038101906101659190610e03565b6104ba565b6040516101779190610e3f565b60405180910390f35b61019a60048036038101906101959190610e5a565b61056b565b6040516101a79190610b8c565b60405180910390f35b6101ca60048036038101906101c59190610e03565b610622565b6040516101d79190610b51565b60405180910390f35b6101e86106ce565b6040516101f59190610b51565b60405180910390f35b60606000805461020d90610eb6565b80601f016020809104026020016040519081016040528092919081815260200182805461023990610eb6565b80156102865780601f1061025b57610100808354040283529160200191610286565b820191906000526020600020905b81548152906001019060200180831161026957829003601f168201915b5050505050905090565b6000600480549050905090565b6000816102a98461056b565b116102e9576040517f08c379a00000000000000000000000000000000000000000000000000000000081526004016102e090610f33565b60405180910390fd5b600660008473ffffffffffffffffffffffffffffffffffffffff1673ffffffffffffffffffffffffffffffffffffffff168152602001908152602001600020828154811061033a57610339610f53565b5b9060005260206000200154905092915050565b60098160405161035d9190610fbe565b908152602001604051809103902060009054906101000a900460ff16156103b9576040517f08c379a00000000000000000000000000000000000000000000000000000000081526004016103b090611021565b60405180910390fd5b6008819080600181540180825580915050600190039060005260206000200160009091909190915090816103ed91906111ed565b506000600160088054905061040291906112ee565b905061040e3382610760565b60016009836040516104209190610fbe565b908152602001604051809103902060006101000a81548160ff0219169083151502179055505050565b6000610453610290565b8210610494576040517f08c379a000000000000000000000000000000000000000000000000000000000815260040161048b90611394565b60405180910390fd5b600482815481106104a8576104a7610f53565b5b90600052602060002001549050919050565b6000806002600084815260200190815260200160002060009054906101000a900473ffffffffffffffffffffffffffffffffffffffff169050600073ffffffffffffffffffffffffffffffffffffffff168173ffffffffffffffffffffffffffffffffffffffff1603610562576040517f08c379a000000000000000000000000000000000000000000000000000000000815260040161055990611400565b60405180910390fd5b80915050919050565b60008073ffffffffffffffffffffffffffffffffffffffff168273ffffffffffffffffffffffffffffffffffffffff16036105db576040517f08c379a00000000000000000000000000000000000000000000000000000000081526004016105d29061146c565b60405180910390fd5b600360008373ffffffffffffffffffffffffffffffffffffffff1673ffffffffffffffffffffffffffffffffffffffff168152602001908152602001600020549050919050565b6008818154811061063257600080fd5b90600052602060002001600091509050805461064d90610eb6565b80601f016020809104026020016040519081016040528092919081815260200182805461067990610eb6565b80156106c65780601f1061069b576101008083540402835291602001916106c6565b820191906000526020600020905b8154815290600101906020018083116106a957829003601f168201915b505050505081565b6060600180546106dd90610eb6565b80601f016020809104026020016040519081016040528092919081815260200182805461070990610eb6565b80156107565780601f1061072b57610100808354040283529160200191610756565b820191906000526020600020905b81548152906001019060200180831161073957829003601f168201915b5050505050905090565b61076a8282610781565b61077381610942565b61077d828261098b565b5050565b600073ffffffffffffffffffffffffffffffffffffffff168273ffffffffffffffffffffffffffffffffffffffff16036107f0576040517f08c379a00000000000000000000000000000000000000000000000000000000081526004016107e7906114d8565b60405180910390fd5b6107f981610a4f565b15610839576040517f08c379a000000000000000000000000000000000000000000000000000000000815260040161083090611544565b60405180910390fd5b816002600083815260200190815260200160002060006101000a81548173ffffffffffffffffffffffffffffffffffffffff021916908373ffffffffffffffffffffffffffffffffffffffff1602179055506001600360008473ffffffffffffffffffffffffffffffffffffffff1673ffffffffffffffffffffffffffffffffffffffff16815260200190815260200160002060008282546108db9190611564565b92505081905550808273ffffffffffffffffffffffffffffffffffffffff16600073ffffffffffffffffffffffffffffffffffffffff167fddf252ad1be2c89b69c2b068fc378daa952ba7f163c4a11628f55a4df523b3ef60405160405180910390a45050565b6004805490506005600083815260200190815260200160002081905550600481908060018154018082558091505060019003906000526020600020016000909190919091505550565b600660008373ffffffffffffffffffffffffffffffffffffffff1673ffffffffffffffffffffffffffffffffffffffff168152602001908152602001600020819080600181540180825580915050600190039060005260206000200160009091909190915055600660008373ffffffffffffffffffffffffffffffffffffffff1673ffffffffffffffffffffffffffffffffffffffff1681526020019081526020016000208054905060076000838152602001908152602001600020819055505050565b6000806002600084815260200190815260200160002060009054906101000a900473ffffffffffffffffffffffffffffffffffffffff169050600073ffffffffffffffffffffffffffffffffffffffff168173ffffffffffffffffffffffffffffffffffffffff161415915050919050565b600081519050919050565b600082825260208201905092915050565b60005b83811015610afb578082015181840152602081019050610ae0565b60008484015250505050565b6000601f19601f8301169050919050565b6000610b2382610ac1565b610b2d8185610acc565b9350610b3d818560208601610add565b610b4681610b07565b840191505092915050565b60006020820190508181036000830152610b6b8184610b18565b905092915050565b6000819050919050565b610b8681610b73565b82525050565b6000602082019050610ba16000830184610b7d565b92915050565b6000604051905090565b600080fd5b600080fd5b600073ffffffffffffffffffffffffffffffffffffffff82169050919050565b6000610be682610bbb565b9050919050565b610bf681610bdb565b8114610c0157600080fd5b50565b600081359050610c1381610bed565b92915050565b610c2281610b73565b8114610c2d57600080fd5b50565b600081359050610c3f81610c19565b92915050565b60008060408385031215610c5c57610c5b610bb1565b5b6000610c6a85828601610c04565b9250506020610c7b85828601610c30565b9150509250929050565b600080fd5b600080fd5b7f4e487b7100000000000000000000000000000000000000000000000000000000600052604160045260246000fd5b610cc782610b07565b810181811067ffffffffffffffff82111715610ce657610ce5610c8f565b5b80604052505050565b6000610cf9610ba7565b9050610d058282610cbe565b919050565b600067ffffffffffffffff821115610d2557610d24610c8f565b5b610d2e82610b07565b9050602081019050919050565b82818337600083830152505050565b6000610d5d610d5884610d0a565b610cef565b905082815260208101848484011115610d7957610d78610c8a565b5b610d84848285610d3b565b509392505050565b600082601f830112610da157610da0610c85565b5b8135610db1848260208601610d4a565b91505092915050565b600060208284031215610dd057610dcf610bb1565b5b600082013567ffffffffffffffff811115610dee57610ded610bb6565b5b610dfa84828501610d8c565b91505092915050565b600060208284031215610e1957610e18610bb1565b5b6000610e2784828501610c30565b91505092915050565b610e3981610bdb565b82525050565b6000602082019050610e546000830184610e30565b92915050565b600060208284031215610e7057610e6f610bb1565b5b6000610e7e84828501610c04565b91505092915050565b7f4e487b7100000000000000000000000000000000000000000000000000000000600052602260045260246000fd5b60006002820490506001821680610ece57607f821691505b602082108103610ee157610ee0610e87565b5b50919050565b7f6f776e657220696e646578206f7574206f6620626f756e647300000000000000600082015250565b6000610f1d601983610acc565b9150610f2882610ee7565b602082019050919050565b60006020820190508181036000830152610f4c81610f10565b9050919050565b7f4e487b7100000000000000000000000000000000000000000000000000000000600052603260045260246000fd5b600081905092915050565b6000610f9882610ac1565b610fa28185610f82565b9350610fb2818560208601610add565b80840191505092915050565b6000610fca8284610f8d565b915081905092915050565b7f4572726f7220616c726561647920657869737473000000000000000000000000600082015250565b600061100b601483610acc565b915061101682610fd5565b602082019050919050565b6000602082019050818103600083015261103a81610ffe565b9050919050565b60008190508160005260206000209050919050565b60006020601f8301049050919050565b600082821b905092915050565b6000600883026110a37fffffffffffffffffffffffffffffffffffffffffffffffffffffffffffffffff82611066565b6110ad8683611066565b95508019841693508086168417925050509392505050565b6000819050919050565b60006110ea6110e56110e084610b73565b6110c5565b610b73565b9050919050565b6000819050919050565b611104836110cf565b611118611110826110f1565b848454611073565b825550505050565b600090565b61112d611120565b6111388184846110fb565b505050565b5b8181101561115c57611151600082611125565b60018101905061113e565b5050565b601f8211156111a15761117281611041565b61117b84611056565b8101602085101561118a578190505b61119e61119685611056565b83018261113d565b50505b505050565b600082821c905092915050565b60006111c4600019846008026111a6565b1980831691505092915050565b60006111dd83836111b3565b9150826002028217905092915050565b6111f682610ac1565b67ffffffffffffffff81111561120f5761120e610c8f565b5b6112198254610eb6565b611224828285611160565b600060209050601f8311600181146112575760008415611245578287015190505b61124f85826111d1565b8655506112b7565b601f19841661126586611041565b60005b8281101561128d57848901518255600182019150602085019450602081019050611268565b868310156112aa57848901516112a6601f8916826111b3565b8355505b6001600288020188555050505b505050505050565b7f4e487b7100000000000000000000000000000000000000000000000000000000600052601160045260246000fd5b60006112f982610b73565b915061130483610b73565b925082820390508181111561131c5761131b6112bf565b5b92915050565b7f676c6f62616c20696e646578206265796f6e6420746f74616c20737570706c7960008201527f2100000000000000000000000000000000000000000000000000000000000000602082015250565b600061137e602183610acc565b915061138982611322565b604082019050919050565b600060208201905081810360008301526113ad81611371565b9050919050565b7f6e6f6e206578697374616e740000000000000000000000000000000000000000600082015250565b60006113ea600c83610acc565b91506113f5826113b4565b602082019050919050565b60006020820190508181036000830152611419816113dd565b9050919050565b7f63616e7420626520302061646472657373000000000000000000000000000000600082015250565b6000611456601183610acc565b915061146182611420565b602082019050919050565b6000602082019050818103600083015261148581611449565b9050919050565b7f43616e74206d696e7420746f2030206164647265737320000000000000000000600082015250565b60006114c2601783610acc565b91506114cd8261148c565b602082019050919050565b600060208201905081810360008301526114f1816114b5565b9050919050565b7f5468697320746f6b656e20616c7265616479206d696e74000000000000000000600082015250565b600061152e601783610acc565b9150611539826114f8565b602082019050919050565b6000602082019050818103600083015261155d81611521565b9050919050565b600061156f82610b73565b915061157a83610b73565b9250828201905080821115611592576115916112bf565b5b9291505056fea264697066735822122087a251ff62560cdf1fb06c32acca786d1f496bfd488013d25c2cf8accc806b6664736f6c63430008110033",
  "immutableReferences": {},
  "source": "// SPDX-License-Identifier: MIT\npragma solidity  ^0.8.0;\n\nimport './ERC721Connector.sol';\n\ncontract KryptoBird is ERC721Connector {\n\n\n     // array to store our NFTs\n     string[] public kryptoBirdz;\n\n     mapping(string => bool) _kryptoBirdzExist;\n\n     function _mint(string memory _kryptoBird) public {\n\n        require(!_kryptoBirdzExist[_kryptoBird], \"Error already exists\");\n\n        kryptoBirdz.push(_kryptoBird);\n        uint _id = kryptoBirdz.length -1;\n\n        _mint(msg.sender, _id);\n\n        _kryptoBirdzExist[_kryptoBird] = true;\n     }\n\n    constructor ()ERC721Connector('KryptoBird', 'KBIRDZ') {}\n}\n",
  "sourcePath": "/Users/georgetzortzakis/Desktop/nft-marketplace-starter-kit-main/src/contracts/KryptoBirdz.sol",
  "compiler": {
    "name": "solc",
    "version": "0.8.17+commit.8df45f5f.Emscripten.clang"
  },
  "schemaVersion": "3.4.10",
  "updatedAt": "2022-10-22T21:36:05.455Z",
  "networkType": "ethereum",
  "devdoc": {
    "kind": "dev",
    "methods": {},
    "version": 1
  },
  "userdoc": {
    "kind": "user",
    "methods": {},
    "version": 1
  }
}