{
  "abi": [
    {
      "inputs": [
        {
          "internalType": "string",
          "name": "name",
          "type": "string"
        },
        {
          "internalType": "string",
          "name": "symbol",
          "type": "string"
        }
      ],
      "stateMutability": "nonpayable",
      "type": "constructor"
    },
    {
      "anonymous": false,
      "inputs": [
        {
          "indexed": true,
          "internalType": "address",
          "name": "from",
          "type": "address"
        },
        {
          "indexed": true,
          "internalType": "address",
          "name": "to",
          "type": "address"
        },
        {
          "indexed": true,
          "internalType": "uint256",
          "name": "tokenId",
          "type": "uint256"
        }
      ],
      "name": "Transfer",
      "type": "event"
    },
    {
      "inputs": [
        {
          "internalType": "address",
          "name": "_owner",
          "type": "address"
        }
      ],
      "name": "balanceOf",
      "outputs": [
        {
          "internalType": "uint256",
          "name": "",
          "type": "uint256"
        }
      ],
      "stateMutability": "view",
      "type": "function"
    },
    {
      "inputs": [],
      "name": "name",
      "outputs": [
        {
          "internalType": "string",
          "name": "",
          "type": "string"
        }
      ],
      "stateMutability": "view",
      "type": "function"
    },
    {
      "inputs": [
        {
          "internalType": "uint256",
          "name": "tokenId",
          "type": "uint256"
        }
      ],
      "name": "ownerOf",
      "outputs": [
        {
          "internalType": "address",
          "name": "",
          "type": "address"
        }
      ],
      "stateMutability": "view",
      "type": "function"
    },
    {
      "inputs": [],
      "name": "symbol",
      "outputs": [
        {
          "internalType": "string",
          "name": "",
          "type": "string"
        }
      ],
      "stateMutability": "view",
      "type": "function"
    },
    {
      "inputs": [
        {
          "internalType": "uint256",
          "name": "index",
          "type": "uint256"
        }
      ],
      "name": "tokenByIndex",
      "outputs": [
        {
          "internalType": "uint256",
          "name": "",
          "type": "uint256"
        }
      ],
      "stateMutability": "view",
      "type": "function"
    },
    {
      "inputs": [
        {
          "internalType": "address",
          "name": "_owner",
          "type": "address"
        },
        {
          "internalType": "uint256",
          "name": "index",
          "type": "uint256"
        }
      ],
      "name": "tokenOfOwnerByIndex",
      "outputs": [
        {
          "internalType": "uint256",
          "name": "",
          "type": "uint256"
        }
      ],
      "stateMutability": "view",
      "type": "function"
    },
    {
      "inputs": [],
      "name": "totalSupply",
      "outputs": [
        {
          "internalType": "uint256",
          "name": "",
          "type": "uint256"
        }
      ],
      "stateMutability": "view",
      "type": "function"
    }
  ],
  "bytecode": {
    "object": "0x608060405234801561001057600080fd5b506040516107c23803806107c283398101604081905261002f9161010f565b8181600061003d83826101fb565b50600161004a82826101fb565b50505050506102ba565b634e487b7160e01b600052604160045260246000fd5b600082601f83011261007b57600080fd5b81516001600160401b038082111561009557610095610054565b604051601f8301601f19908116603f011681019082821181831017156100bd576100bd610054565b816040528381526020925086838588010111156100d957600080fd5b600091505b838210156100fb57858201830151818301840152908201906100de565b600093810190920192909252949350505050565b6000806040838503121561012257600080fd5b82516001600160401b038082111561013957600080fd5b6101458683870161006a565b9350602085015191508082111561015b57600080fd5b506101688582860161006a565b9150509250929050565b600181811c9082168061018657607f821691505b6020821081036101a657634e487b7160e01b600052602260045260246000fd5b50919050565b601f8211156101f657600081815260208120601f850160051c810160208610156101d35750805b601f850160051c820191505b818110156101f2578281556001016101df565b5050505b505050565b81516001600160401b0381111561021457610214610054565b610228816102228454610172565b846101ac565b602080601f83116001811461025d57600084156102455750858301515b600019600386901b1c1916600185901b1785556101f2565b600085815260208120601f198616915b8281101561028c5788860151825594840194600190910190840161026d565b50858210156102aa5787850151600019600388901b60f8161c191681555b5050505050600190811b01905550565b6104f9806102c96000396000f3fe608060405234801561001057600080fd5b506004361061007d5760003560e01c80634f6ccce71161005b5780634f6ccce7146100c55780636352211e146100d857806370a082311461010357806395d89b411461011657600080fd5b806306fdde031461008257806318160ddd146100a05780632f745c59146100b2575b600080fd5b61008a61011e565b60405161009791906103a4565b60405180910390f35b6004545b604051908152602001610097565b6100a46100c036600461040e565b6101b0565b6100a46100d3366004610438565b61024b565b6100eb6100e6366004610438565b6102d3565b6040516001600160a01b039091168152602001610097565b6100a4610111366004610451565b61032d565b61008a610395565b60606000805461012d90610473565b80601f016020809104026020016040519081016040528092919081815260200182805461015990610473565b80156101a65780601f1061017b576101008083540402835291602001916101a6565b820191906000526020600020905b81548152906001019060200180831161018957829003601f168201915b5050505050905090565b6000816101bc8461032d565b1161020e5760405162461bcd60e51b815260206004820152601960248201527f6f776e657220696e646578206f7574206f6620626f756e64730000000000000060448201526064015b60405180910390fd5b6001600160a01b0383166000908152600660205260409020805483908110610238576102386104ad565b9060005260206000200154905092915050565b600061025660045490565b82106102ae5760405162461bcd60e51b815260206004820152602160248201527f676c6f62616c20696e646578206265796f6e6420746f74616c20737570706c796044820152602160f81b6064820152608401610205565b600482815481106102c1576102c16104ad565b90600052602060002001549050919050565b6000818152600260205260408120546001600160a01b0316806103275760405162461bcd60e51b815260206004820152600c60248201526b1b9bdb88195e1a5cdd185b9d60a21b6044820152606401610205565b92915050565b60006001600160a01b0382166103795760405162461bcd60e51b815260206004820152601160248201527063616e742062652030206164647265737360781b6044820152606401610205565b506001600160a01b031660009081526003602052604090205490565b60606001805461012d90610473565b600060208083528351808285015260005b818110156103d1578581018301518582016040015282016103b5565b506000604082860101526040601f19601f8301168501019250505092915050565b80356001600160a01b038116811461040957600080fd5b919050565b6000806040838503121561042157600080fd5b61042a836103f2565b946020939093013593505050565b60006020828403121561044a57600080fd5b5035919050565b60006020828403121561046357600080fd5b61046c826103f2565b9392505050565b600181811c9082168061048757607f821691505b6020821081036104a757634e487b7160e01b600052602260045260246000fd5b50919050565b634e487b7160e01b600052603260045260246000fdfea2646970667358221220a0fd649c0a09fcd0964803374e1b4cc1446424f1063078963cafa7dde585e55764736f6c63430008110033",
    "linkReferences": {}
  },
  "methodIdentifiers": {
    "balanceOf(address)": "70a08231",
    "name()": "06fdde03",
    "ownerOf(uint256)": "6352211e",
    "symbol()": "95d89b41",
    "tokenByIndex(uint256)": "4f6ccce7",
    "tokenOfOwnerByIndex(address,uint256)": "2f745c59",
    "totalSupply()": "18160ddd"
  },
  "id": 1
}