{
  "abi": [
    {
      "inputs": [
        {
          "internalType": "string",
          "name": "name",
          "type": "string"
        },
        {
          "internalType": "string",
          "name": "symbol",
          "type": "string"
        }
      ],
      "stateMutability": "nonpayable",
      "type": "constructor"
    },
    {
      "anonymous": false,
      "inputs": [
        {
          "indexed": true,
          "internalType": "address",
          "name": "from",
          "type": "address"
        },
        {
          "indexed": true,
          "internalType": "address",
          "name": "to",
          "type": "address"
        },
        {
          "indexed": true,
          "internalType": "uint256",
          "name": "tokenId",
          "type": "uint256"
        }
      ],
      "name": "Transfer",
      "type": "event"
    },
    {
      "inputs": [
        {
          "internalType": "address",
          "name": "_owner",
          "type": "address"
        }
      ],
      "name": "balanceOf",
      "outputs": [
        {
          "internalType": "uint256",
          "name": "",
          "type": "uint256"
        }
      ],
      "stateMutability": "view",
      "type": "function"
    },
    {
      "inputs": [],
      "name": "name",
      "outputs": [
        {
          "internalType": "string",
          "name": "",
          "type": "string"
        }
      ],
      "stateMutability": "view",
      "type": "function"
    },
    {
      "inputs": [],
      "name": "symbol",
      "outputs": [
        {
          "internalType": "string",
          "name": "",
          "type": "string"
        }
      ],
      "stateMutability": "view",
      "type": "function"
    }
  ],
  "bytecode": {
    "object": "0x608060405234801561001057600080fd5b5060405161054b38038061054b83398101604081905261002f9161010f565b8181600061003d83826101fb565b50600161004a82826101fb565b50505050506102ba565b634e487b7160e01b600052604160045260246000fd5b600082601f83011261007b57600080fd5b81516001600160401b038082111561009557610095610054565b604051601f8301601f19908116603f011681019082821181831017156100bd576100bd610054565b816040528381526020925086838588010111156100d957600080fd5b600091505b838210156100fb57858201830151818301840152908201906100de565b600093810190920192909252949350505050565b6000806040838503121561012257600080fd5b82516001600160401b038082111561013957600080fd5b6101458683870161006a565b9350602085015191508082111561015b57600080fd5b506101688582860161006a565b9150509250929050565b600181811c9082168061018657607f821691505b6020821081036101a657634e487b7160e01b600052602260045260246000fd5b50919050565b601f8211156101f657600081815260208120601f850160051c810160208610156101d35750805b601f850160051c820191505b818110156101f2578281556001016101df565b5050505b505050565b81516001600160401b0381111561021457610214610054565b610228816102228454610172565b846101ac565b602080601f83116001811461025d57600084156102455750858301515b600019600386901b1c1916600185901b1785556101f2565b600085815260208120601f198616915b8281101561028c5788860151825594840194600190910190840161026d565b50858210156102aa5787850151600019600388901b60f8161c191681555b5050505050600190811b01905550565b610282806102c96000396000f3fe608060405234801561001057600080fd5b50600436106100415760003560e01c806306fdde031461004657806370a082311461006457806395d89b4114610085575b600080fd5b61004e61008d565b60405161005b9190610194565b60405180910390f35b6100776100723660046101e2565b61011f565b60405190815260200161005b565b61004e610185565b60606000805461009c90610212565b80601f01602080910402602001604051908101604052809291908181526020018280546100c890610212565b80156101155780601f106100ea57610100808354040283529160200191610115565b820191906000526020600020905b8154815290600101906020018083116100f857829003601f168201915b5050505050905090565b60006001600160a01b03821661016f5760405162461bcd60e51b815260206004820152601160248201527063616e742062652030206164647265737360781b604482015260640160405180910390fd5b6001600160a01b03909116600052600360205290565b60606001805461009c90610212565b600060208083528351808285015260005b818110156101c1578581018301518582016040015282016101a5565b506000604082860101526040601f19601f8301168501019250505092915050565b6000602082840312156101f457600080fd5b81356001600160a01b038116811461020b57600080fd5b9392505050565b600181811c9082168061022657607f821691505b60208210810361024657634e487b7160e01b600052602260045260246000fd5b5091905056fea2646970667358221220079010bf93f6a06e6d62a6e01ce4942502c5b417d4570ef86b5cb37c7747a83564736f6c63430008110033",
    "linkReferences": {}
  },
  "methodIdentifiers": {
    "balanceOf(address)": "70a08231",
    "name()": "06fdde03",
    "symbol()": "95d89b41"
  },
  "id": 1
}